:020000040800F2
:10000000E0040020D9000008B51800088F17000888
:1000100000000000000000000000000000000000E0
:10002000000000000000000000000000B9180008F7
:100030000000000000000000B7180008BB1800080E
:10004000EB000008EB000008EB000008EB000008E4
:10005000EB000008EB000008EB000008EB000008D4
:10006000EB000008EB000008EB000008EB000008C4
:10007000EB000008EB000008000000005519000824
:1000800000000000EB00000800000000000000007D
:10009000EB00000800000000EB000008EB00000887
:1000A000EB000008EB000008EB000008EB00000884
:1000B000EB000008EB000008EB000008EB00000874
:1000C0000448854600F03CFB00480047D129000861
:1000D000C046C046E004002004488047044800476A
:1000E000FEE7FEE7FEE7FEE7FEE7FEE75119000840
:1000F000C100000830B50B46014600202022012433
:1001000009E00D46D5409D4205D31D469540491B4B
:100110002546954040191546521E002DF1DC30BD94
:10012000F0B51FB40646002082B005464024019178
:1001300000901BE0019922460F46304600F0FEF881
:10014000049A059B801A994110D3104619462246FD
:1001500000F0E4F8361A8F41019722460120002171
:10016000009F00F0DBF838184D4100902046641ED7
:100170000028DFDC019B00982946324607B0F0BD1D
:10018000D2B201E00270401C491EFBD2704700222F
:10019000F6E710B513460A4604461946FFF7F0FF86
:1001A000204610BDF0B50C465C4085B0E40FE40776
:1001B00003944C00002664085900944649080246FE
:1001C0000296224321D062460A431ED06200570D98
:1001D0004A000E032303550D012402462C49240531
:1001E000781B1B0B360B40182343264361460090B7
:1001F0001C46501AB44103D30098401C009002E002
:10020000921800985B41002803DA0020014605B0EF
:10021000F0BD0020012109050746864611E064462D
:100220001D46141BB54106D36546521BB3417446A7
:1002300007430C43A646CD074008490828439218B7
:100240005B4105460D43EAD11046184313D0604682
:10025000194650407140084306D06046101AB34119
:1002600006D20122002306E000220123DB0702E080
:100270000122D2435310009874460105381C614195
:10028000029C039D0019694100F0AAF8BFE7000035
:10029000FD0300000EB5C217C10F5040CA07401839
:1002A0000021054B0293019200910A460B4600F093
:1002B000A4F803B000BD000033040000C20FD20751
:1002C000400040080BD0C10D0723DB01C9184002D4
:1002D0000905400A1143C208400711437047002036
:1002E00001467047CB0FDB07490010B549080246AD
:1002F0000A4307D00A0D07240903E401090B121B66
:10030000002A01DC002010BDC900440F0C43C100CD
:10031000E018D205801800F022F810BD10B5202A90
:1003200004DB0146203A9140002010BD914020237B
:100330009C1A0346E3401943904010BD10B5202A93
:1003400004DB0846203AD040002110BD0B46D340C4
:10035000D0402024A21A91400843194610BD00291C
:1003600004DA401C490001D140084000704770B4D5
:100370000024050C05D11024000402D1002921D04D
:100380001124050E01D100020834050F01D100012E
:10039000241D850F01D18000A41C002801DB400032
:1003A000641C002908D020252E1B0D46F540A140D5
:1003B00000D001212943084301061B1B000ADB1D55
:1003C00002D5002070BC7047DB0518188018002982
:1003D000F8DA401C4900F5D170BC40084000704775
:1003E00010B5002B08DA0024401C614192185B41D3
:1003F0001A4301D14008400010BDF0B51FB482B0CF
:1004000005460C0003D0084601F034FD02E001F07F
:1004100031FD20300246009021462846FFF77EFF3E
:10042000049B059A04460F4618431143084314D011
:10043000184610431BD0009840210A1A1846059907
:10044000FFF77CFF05460E46009A05990498FFF7D2
:1004500065FF084305D0012004E02046394607B077
:10046000F0BD0020C11705430E432C4337430099CC
:100470000E986305401A7905E40A00220C43FD0A30
:100480000A3002D500200146E9E70105101969414B
:100490000C9C0D9D00196941FFF7A2FFDFE70000EA
:1004A000F0B507460846584087B0C00F0490480092
:1004B0000E46590040084908BC1A884105D2384602
:1004C00031461E4617460B46024658004008104368
:1004D0004DD0300D039040055900400D490D059059
:1004E000401A0290402873DA18030121000B090515
:1004F0000843019004980092002806D01146019A02
:1005000049420020904100910190029840210A1A2E
:1005100001990098FFF702FF05460C466B4607CB92
:1005200000F020F9C0197141039A0E0D0023D7176E
:1005300056401A467A40164344D0049A002A2DD0D9
:10054000029A012A039A15DC1205C01A914101266C
:100550003605001C7141D20F059ED207009301920F
:1005600002962A462346FFF748FF07B0F0BD3846FB
:100570003146FAE71605234A0F46B218C01AB741AA
:1005800001210905001C4F4100187F411146181830
:100590007941E20F10436D19644113E0E2076D08E1
:1005A00015436408C2071443039A01261205C01AB2
:1005B00091413605001C7141CE074008304349087F
:1005C000C01851412A462346FFF70AFFCDE7FFE74F
:1005D000049801224000C117121A00238B4104988D
:1005E0003146C417381AA141EEE730B40124E407BC
:1005F000634030BC54E730B40124E407614030BCB0
:100600004EE700000000E0FFF0B51FB488B00B9982
:100610000998002448400999C00F490049080991E8
:10062000C0070B990090490049080B910999089857
:10063000A64608431CD00B990A98084318D009987D
:1006400001244000420D4800410D09982405000393
:10065000000B204309900B980003000B20430B90E4
:1006600050181C494018002201901446104605E01D
:10067000002001460DB0F0BD032801DA034600E07A
:1006800003239C46C11A0AAE0AE05F0008ADED5B89
:100690004F00F75B7D430027AA187C41491C5B1E75
:1006A0006145F2DD410004AB5A522104120C0A43A9
:1006B000240C401C0828DFDB01980290009970464A
:1006C00001910090059B049A07990698FFF795FE03
:1006D000D0E700000DFCFFFF4A0009030123090BCE
:1006E0001B0519430A4B10B5520D9A4202DA00203D
:1006F000014610BD064B34339A4203DC9A1AFFF7C9
:100700001DFE10BD034BD218FFF708FE10BD000000
:10071000FF030000CDFBFFFF10B5002904DB01241F
:10072000E40740428C412146002B04DB1C46012398
:10073000DB075242A341994200D1904210BD000014
:10074000064C0125064E05E0E36807CC2B430C3C24
:1007500098471034B442F7D3FFF7B6FC902A00084C
:10076000B02A000810B5202A06DBCB170846203A2D
:100770001041C1170B4306E00B461341D040202423
:10078000A21A91400843194610BD72B6FEE7000058
:1007900070B5044600F0F2F80546601C02D004482B
:1007A0000078241800F0EAF8401BA042FAD370BD8C
:1007B00008000020F8B5002303240125BDE03246DF
:1007C0002E469E40B446324079D00E79B607B60F19
:1007D000012E01D0022E17D186682746B6465E004C
:1007E000B74000967646BE43B646CF68009EB740F7
:1007F00076463743876046686746BE430F79FF06F3
:10080000FF0F9F40374347600E79F643B6070ED07F
:10081000C6682746B4465E00B646B7406646BE4345
:10082000B4468F687646B74066463743C7600E7950
:10083000B607B60F022E14D1DE08B60036180096A1
:10084000366A5F07B446FE0E0F27B646B7406646C7
:10085000BE43B4460F697646B74066463743009EAE
:10086000376206682746B4465E00B646B74066461D
:10087000BE430F79B446BF07BF0F7646B740664602
:10088000374307604E68B603B60F55D02E4F7E6BC8
:100890002E437E639F082D4EBF00BE190096B6689A
:1008A0000F27B4469E07360FB646B7406646BE438E
:1008B00005273F07B446B84202D1002715E03BE0C8
:1008C000234FB84201D101270FE0224FB84201D196
:1008D00002270AE0204FB84201D1032705E01F4F4D
:1008E000B84201D1052700E006277646B7406646A4
:1008F0003743009EB7601A4E36684F689643FF0331
:1009000000D51643164F3E607E684F689643BF037E
:1009100000D51643124F7E60BE684F689643FF02B3
:1009200000D516430E4FBE60FE684F689643BF0267
:1009300000D516430A4AD6605B1C0A681646DA40A0
:1009400000D03CE7F8BD000000100240000001406C
:100950000004005000080050000C0050001C005023
:10096000000401400069084000D001207047002ABF
:1009700001D0816170478162704700000148806842
:10098000704700000800002002488168027889183A
:10099000816070470800002010B5084800240168F5
:1009A000402211430160204600F00AF8002801D0DF
:1009B000012401E000F026F8204610BD002002408E
:1009C00070B504460D4D7D202978C000FFF792FBDD
:1009D00001460B480068FFF78DFB00F069FC00281A
:1009E00009D1042C07D200222146401E00F022F833
:1009F00000206C6070BD012070BD00000800002068
:100A0000140000200448416B012211434163816BB3
:100A1000020411438163704700100240002805DB87
:100A2000C106C90E012088400149086070470000D6
:100A300000E100E010B501F059FA10BDF8B5044628
:100A400000680027604D810601D400057ED55E4E0A
:100A5000403EB06BC00004D4B06B31040843B063B7
:100A600001275A480168C90511D40168821511434C
:100A70000160FFF783FF009005E0FFF77FFF00991B
:100A8000401A642844D851480068C005F5D531683B
:100A900003200005626801401040884205D103230D
:100AA000A0681B051840884208D09003800F0328D7
:100AB00004D13068800301D50120F8BD28690321E5
:100AC0000904084029D00A40824202D022789206C6
:100AD00006D4A2680A4082421FD0208800051CD597
:100AE00028692A6988430121C9040A432A612A69BD
:100AF0008A432A612861C0050FD5FFF73FFF0090A8
:100B000008E0FFF73BFF0099411A3148814201D9C3
:100B10000320F8BD28698005F3D561688803800F3C
:100B2000032805D132680005824301400A43326040
:100B30002869032261681204114008432861002FCC
:100B400006D0B16B01200007814300E000E0B163F3
:100B50002078C00705D0E868E16880088000084375
:100B6000E8602078800705D5E8680C218843216972
:100B70000843E8602078400706D5E8680321890229
:100B8000884361690843E8602078000706D5E86873
:100B9000032109038843A1690843E86020784006DF
:100BA00006D5E868012189068843216A0843E86080
:100BB0002078000606D5E868032189048843E169A6
:100BC0000843E8600020F8BD40100240007000407B
:100BD00088130000F8B50E46050038D05E4800685E
:100BE000C007C00FB04214D25B4C206840084000E0
:100BF00030432060FFF7C2FE074605E0FFF7BEFE68
:100C0000C11B564881427AD82068C007C00FB04245
:100C1000F4D12878524C800705D5E068F02188434C
:100C2000A9680843E0602878C00752D068680228A5
:100C300006D0032807D0216801280AD0890504E0DE
:100C40002168890301E021688901002903DB012073
:100C5000F8BD4907F9E7E168890889000143E160C7
:100C6000FFF78CFE0746686802280AD0032814D0D4
:100C700001281ED029E0FFF781FEC11B37488142C1
:100C80003DD8E0680007800F0228F4D121E0FFF78B
:100C900075FEC11B3148814231D8E0680007800FE2
:100CA0000328F4D115E0FFF769FEC11B2B488142F0
:100CB00025D8E0680007800F0128F4D109E0FFF78C
:100CC0005DFEC11B2548814219D8E0680007800FEE
:100CD000F5D121480168C907C90FB14217D9016888
:100CE0004908490031430160FFF748FE074608E024
:100CF00005E0FFF743FEC11B1848814201D90320DC
:100D0000F8BD15480068C007C00FB042F1D128787F
:100D1000400706D5E068072109028843E9680843CF
:100D2000E0602878000707D5E0680721C9028843FA
:100D30002969C9000843E06000F03AF8E168094A0F
:100D40000906090F515CC840074908600748006858
:100D5000FFF736FEF8BD00000020024088130000B7
:100D6000001002406C2A0008140000200C00002033
:100D7000044805490068C968044A4905490F515C9F
:100D8000C84070471400002000100240852A000867
:100D9000044805490068C968044A8904490F515C40
:100DA000C84070471400002000100240852A000847
:100DB00070B5184AD36818490C2018408D000428D3
:100DC0000BD008280ED00C280ED050680004410F1C
:100DD0000120C003491C884070BD1068C00601D4C2
:100DE000284670BD084670BD98020C4C000F205C70
:100DF0001B029C0FD368641CDB0303D41268D20669
:100E000000D4294601F04DF822460023FFF788F967
:100E100070BD00000010024000093D007C2A00085F
:100E2000FEB505007ED0FE4CE7680C20E668074062
:100E30000120000406402878C00747D0082F05D0BD
:100E40000C2F0AD101200004864206D120688003BD
:100E50003CD568680028E5D038E0012069680004C6
:100E6000814203D121680143216011E00523012261
:100E70001B0492049942216802D111432160F1E7D9
:100E800081432160216801400091206890432060E7
:100E9000686800280DD0FFF771FD009005E0FFF7AE
:100EA0006DFD0099401A64287BD820688003F6D530
:100EB0000CE0FFF763FD009005E0FFF75FFD009990
:100EC000401A6428F0D820688003F6D42878800778
:100ED00056D50923E868042F0DD00C2F01D1002E20
:100EE00009D000283CD02168994301432160FFF7D5
:100EF00045FD064628E02168490701D5002891D024
:100F000061681F22120291432A6912021143616033
:100F10002168994301432160FFF74AFFE168090610
:100F20000A0F00E0BFE1BF49895CC840BE490860C4
:100F3000BE480068FFF744FD002873D120E0FFF7AA
:100F40001DFD801B0228AFD820684007F7D56068D8
:100F50001F210902884329690902084360600FE0E4
:100F60002068400840002060FFF708FD064604E0C6
:100F7000FFF704FD801B022896D820684007F7D4AD
:100F80002878C00660D5002F0CD0E86900284AD028
:100F90002068FF21013108432060FFF7EFFC06467F
:100FA0002EE0E5E02068800502D5E8690028A6D09B
:100FB0006068072149038843696A08436060606884
:100FC000298C0002000A090608436060686A410B28
:100FD0000120C003491C8840E16809060A0F9149B5
:100FE000895CC8409049086090480068FFF7E8FCB9
:100FF000002817D128E0FFF7C1FC801B0228A2D8E7
:1010000020688005F7D56068072149038843696A2D
:10101000084360606068298C0002000A09060843E2
:10102000606011E025E12168FF20013081432160EB
:10103000FFF7A4FC064604E0FFF7A0FC801B022893
:101040009AD820688005F7D42878794E000724D5EF
:1010500068690028306910D0012108433061FFF72A
:101060008DFC009005E0FFF789FC0099401A0228EA
:101070007ED830698007F6D50FE040084000306127
:10108000FFF77CFC009005E0FFF778FC0099401A20
:1010900002286DD830698007F6D42878400764D5D7
:1010A00000200290A06BC00006D4A06B01210907AC
:1010B0000843A063012002905E480168C90511D46D
:1010C0000168821511430160FFF758FC009005E0AC
:1010D000FFF754FC0099401A642849D85548006825
:1010E000C005F5D5FF20AA680130824203D13169DD
:1010F0000143316111E001218902002A07D0052353
:101100001B029A4203D132690A433261EFE7326926
:1011100082433261306988433061A86800280ED06C
:10112000FFF72CFC009006E0FFF728FC0099411A1D
:10113000414881421CD830698005F5D50DE0FFF7A4
:101140001DFC009006E0FFF719FC0099411A3A488F
:1011500081420DD830698005F5D40298002804D06A
:10116000A16B012000078143A1632878800600E07D
:101170007EE02ED53148A9694314002916D0A26813
:1011800001210A43A260626B0A436263016A194348
:101190000162FFF7F3FB064604E0FFF7EFFB801B5D
:1011A000022865D8A0688007F7D512E0A168490831
:1011B0004900A160016A99430162FFF7DFFB06461F
:1011C00004E0FFF7DBFB801B022851D8A0688007F2
:1011D000F7D4A86A002868D00C2F4FD00126360615
:1011E0000228206805D0B0432060FFF7C7FB054602
:1011F00040E0B0432060FFF7C1FB074604E0FFF783
:10120000BDFBC01B022833D820688001F7D4296BAE
:10121000E86AE2680843696BFD231B049A430FE008
:10122000001002406C2A0008140000200C0000206E
:101230004010024000700040881300000000014090
:1012400011430843E060206830432060FFF796FBBD
:10125000054604E0FFF792FB401B022808D82068EF
:101260008001F7D521E0FFF789FB401B022801D957
:101270000320FEBD20688001F5D416E00128F8D0D7
:10128000E06801210904EA6A014091420BD10F2173
:1012900089042A6B0140914205D103218905084048
:1012A000696B884201D00120FEBD0020FEBD000018
:1012B000094910B5401E884201D9012010BD074CD4
:1012C00060610321081F00F011FE0020A0610720CB
:1012D0002061002010BD0000FFFFFF0000E000E0E3
:1012E000F0B502462032137E012B1ED00125157663
:1012F0000223537606687468B3687027BC430F688E
:10130000274377600068AC07A04205D0084CA04294
:1013100002D0084CA04204D180244968A343194359
:101320008160557600201076F0BD0220F0BD0000EF
:10133000000801400014014070B5050005D02C469E
:101340002034607E002802D006E0012070BD00201D
:101350002076284600F010F802206076291D2868C3
:1013600000F000FB0120A077A076E0762077607780
:101370006076002070BD000010B50068012189076B
:1013800088420CD10648816B0122114381630022FF
:1013900011460F20FFF74EFB0F20FFF73FFB10BD5C
:1013A00000100240014620314A7E012A01D001206E
:1013B000704702224A76006852070121904205D008
:1013C000074A904202D0074A904204D182685207ED
:1013D000520F062A02D002680A43026000207047BA
:1013E0000008014000140140F8B5054604462035C8
:1013F000287E0026012817D0012028760220687652
:10140000226890687727FF23B8431B0298439060B7
:101410000868502838D00EDC20284FD006DC002881
:101420004CD010281ED149E00220F8BD302845D00C
:10143000402817D13AE060282ED0702819D0012218
:101440001203801A0FD090420CD1CB684A68896889
:10145000206800F0B3FA20688168012292031143EA
:10146000816000E001260120687600202876304661
:10147000F8BDCB684A688968206800F09FFA216847
:10148000886838438860EEE7CA684968206800F0D9
:10149000A8FA5021206806E0CA684968206800F070
:1014A000B1FA6021206800F094FADCE7CA68496864
:1014B000206800F096FA40212068F4E7226801468F
:1014C0001046F0E7704770B50446006801690025D2
:1014D000C9438907002915DBC168C943890711D4AD
:1014E000E91E01610120207620688069800720467E
:1014F00002D0FFF7E7FF04E000F078F8204600F0A4
:1015000076F8257620680169C943490717D4C16870
:10151000C943490713D40421C9430161022020763D
:10152000206880698005800F204602D0FFF7CAFF3F
:1015300004E000F05BF8204600F059F825762068BA
:101540000169C943090716D4C168C943090712D400
:101550000821C9430161042020762068C069800702
:10156000204602D0FFF7AEFF04E000F03FF820462F
:1015700000F03DF8257620680169C943C90617D4F3
:10158000C168C943C90613D41021C94301610820A9
:1015900020762068C0698005800F204602D0FFF7C2
:1015A00091FF04E000F022F8204600F020F82576B4
:1015B00020680169C943C90708D1C168C943C9077F
:1015C00004D1891E0161204600F012F820680169EB
:1015D000C943490609D4C168C943490605D4402115
:1015E000C9430161204600F004F870BD70477047A0
:1015F0007047704710B5040003D0A06F002802D0D8
:1016000007E0012010BD002174200155204600F0A4
:1016100027F82420A0672068016849084900016074
:10162000204600F099FA0128ECD0606A002802D028
:10163000204600F0FAF9206841680922D20291435D
:101640004160206881682A22914381602068016896
:10165000012211430160204600F04CFA10BD000049
:1016600010B586B0044614216846FEF790FD114976
:10167000206888421BD11048816B0122520411431B
:101680008163C16A01221143C162C06A6946104088
:1016900005900C2000900220019000200290032071
:1016A00003900420049005200007FFF783F806B09C
:1016B00010BD00000044004000100240FFB5044689
:1016C000806F83B017460D4620285ED1002D0AD0CA
:1016D000002F08D0A168C001814207D120690028ED
:1016E00004D1E80702D0012007B0F0BD20466030E9
:1016F0000090007D012848D000980121017500204C
:10170000802108512120A067FFF738F9264640368E
:101710000190378277820120A1680003814202D1C3
:101720002069002805D02F46002500990020087563
:1017300011E00027F9E700228021204600F00CFB91
:10174000002815D1002F15D02168387888627F1CB9
:10175000708A401E7082708A019B00280698009053
:10176000E9D100224021204600F0F6FA002808D0F6
:101770000320B9E728882168C005C00D8862AD1C28
:10178000E6E72020A0670020AEE70220ACE7FEE7F6
:1017900030B587B014216846FEF7F9FC1948C26AD3
:1017A00080210A43C262C26A0A400592C16A0424C7
:1017B0002143C162C16A21400591C16A01252943C3
:1017C000C162C16A29400591C26A02210A43C2620C
:1017D000C06A084005900820009000200190029007
:1017E00069460948FEF7E6FFA0010090122001902B
:1017F000032003900295694604940448FEF7DAFF3B
:1018000007B030BD00100240000800500004005036
:1018100010B586B00024009401211648019402946A
:10182000039404948907059401601F21846041603A
:10183000046111494461C160FFF77EFD002801D0B9
:10184000FEF7A3FF01200003009069460948FFF757
:10185000CBFD002801D0FEF798FF049404A90548A9
:101860000594FFF73DFD002801D0FEF78EFF06B07E
:1018700010BD00001C000020FFFF000010B50C4848
:101880000A490160E1214902416000218160C16093
:1018900001618161C1610C22016242614162FFF715
:1018A000A9FE002801D0FEF770FF10BD00440040E3
:1018B0005C000020FEE77047704710B5FFF764F842
:1018C00010BD000030B59DB038216846FEF75FFCC2
:1018D000142117A8FEF75BFC24210EA8FEF757FC85
:1018E0001A4801680322D2029143C2148918016088
:1018F00001200090000401900B90052080040C90C2
:10190000D00202250D900A956846FFF789FA002853
:1019100001D072B6FEE70F20179000240320189024
:1019200019941A9401211B9417A8FFF753F9002862
:1019300001D072B6FEE70EA80E951294FFF77EF85E
:10194000002801D072B6FEE71DB030BD0070004027
:101950007047000010B50248FFF7B5FD10BD00004C
:101960001C00002070B5026801239B07114C124D2A
:10197000984203D0A04201D0A84203D17026B243BE
:101980004E683243984203D0A04201D0A84204D10D
:1019900003231B029A43CB681A4380239A430B69A3
:1019A0001A4302608A68C26209688162012141614A
:1019B00070BD0000000801400014014030B584688B
:1019C000FF252D021B021343AC430B4323438360CB
:1019D00030BD826870239A430A4307210A4382601C
:1019E000704730B5036A046A64086400046284695D
:1019F000F025AC43120122430A24A3430B43826126
:101A0000036230BD30B5036A1024A34303628469C6
:101A1000036A0F252D031203AC432243A024A343E2
:101A2000090119438261016230BD10B5818CC9077B
:101A300007D001684A6801235B049A43836A1A430A
:101A40004A60818C890707D501684A6801231B0415
:101A50009A43C36A1A434A60818C490707D50168D3
:101A60004A6801239B049A43036B1A434A60818CA2
:101A7000090707D501684A680123DB039A43436BD2
:101A80001A434A60818CC90607D502689168012310
:101A90001B039943836B19439160818C890607D599
:101AA00001688A6801235B039A43C36B1A438A6007
:101AB000818C490612D503685A6801210905046C16
:101AC0008A4322435A60026C8A4207D102685168F5
:101AD00003235B059943436C19435160818C0906CC
:101AE00007D501684A680123DB04806C9A430243EE
:101AF0004A6010BDF8B50446002680300660FEF747
:101B00003DFF054620680068124F000709D50121F6
:101B10002B46002249052046009700F01DF90028B9
:101B20000DD12068006840070BD501212B4600220B
:101B300089052046009700F00FF9002801D0032006
:101B4000F8BD2020A067E067266660342675002077
:101B5000F8BD0000FFFFFF01F8B50446016880688A
:101B60002369E66918436369002533431843724AC1
:101B70000B68724E334003430B60216848680323AF
:101B80001B039843E368184348602168A0699142A9
:101B900001D0236A18438B680B263602B3430343F4
:101BA0008B606749236867488B420CD1C068800707
:101BB000800F06D0012839D0022835D0032821D142
:101BC0001EE001271FE060498B420AD1C0680C214A
:101BD000084027D0042829D0082825D00C2811D166
:101BE0000EE093420ED1C16803208002014019D05B
:101BF00001208002091A19D0091A15D0814201D199
:101C0000082700E010274F4950484039860093428A
:101C100032D1002F0CD0022F0DD0042F10D0082F5E
:101C20007FD126E00027EEE70227ECE70427EAE76A
:101C3000FFF79EF806E00968C90605D4304603E0C0
:101C4000FFF7B6F8002872D062685100511881423F
:101C500067D81103814264D3010E060250080023A5
:101C600030185941FEF75CFA03210902411A384A3B
:101C700055E00120C003E7E70122E369D203934264
:101C80002BD13B0000F025F90906090C4D114D4DF3
:101C90004D274D00FFF76CF809E0FFF779F806E0F3
:101CA0000968C90605D4304603E0FFF781F800282B
:101CB0003DD0616840004A088018FEF71BFA80B2E8
:101CC0000146244A103991422BD8511C014000078B
:101CD000400F084329E01046EBE73B0000F0F9F81D
:101CE0000906090C2112212121232100FFF740F8C8
:101CF0000AE0FFF74DF807E00968C90606D4304648
:101D000004E00EE0FFF754F8002810D061684A089C
:101D10001018FEF7EFF980B201460E4A10399142D1
:101D200003D9012503E01046F0E72168C8600020D0
:101D30006066A0662846F8BD00480040F369FFEFE2
:101D400000380140401002400044004000093D00BE
:101D5000FFFC0F00EFFF0000FFB581B005461746FE
:101D6000044660350A9E55E0701C53D0FEF706FE0F
:101D70000499401AB04230D8002E2ED02068016855
:101D8000490747D5C069C043000543D401202168F5
:101D9000C0020862EFF31080012181F310882168EE
:101DA0000B68FF22A13293430B6080F31088EFF39E
:101DB0001080012181F3108821688A68520852003E
:101DC0008A6080F310882020A067E067803420605C
:101DD00000202875032005B0F0BDEFF3108001212D
:101DE00081F3108821680B68FF22A13293430B60B6
:101DF00080F31088EFF31080012181F310882168AF
:101E00008A68520852008A6080F310882020A067F8
:101E1000E067DDE72068C1690298884304D00020AC
:101E2000B842A1D00020D6E70120F9E70FB410B5E1
:101E300003A9044B044A029800F044F910BC08BC02
:101E400004B01847B5290008180000200FB410B5D9
:101E500004A9074B02AA039800F034F9044602A92A
:101E6000002000F0CDFC204610BC08BC04B0184790
:101E7000012800082021020C01D010211046020A7E
:101E800001D010460839020901D01046091F820806
:101E900001D01046891E420801D0881E7047081ADA
:101EA0007047F8B5040C8BB2264682B25E430D0C27
:101EB0001046370C584336048019002179411646E4
:101EC0006E43370C36048019794126466E438919D2
:101ED000F8BD30B47446641E2578641CAB4200D251
:101EE0001D46635D5B00E31830BC18478307FF2283
:101EF000DB0E9A408907090E9940002808DB830809
:101F000009489B001B1818689043084318607047E5
:101F10000007000F0838830804489B001B18D86985
:101F200090430843D861704700E400E000ED00E012
:101F300002E008C8121F08C1002AFAD17047704792
:101F4000002001E001C1121F002AFBD170470000F0
:101F5000F0B51FB486B00998089A030D002102431A
:101F600014D05148514A18185043051411980128AB
:101F700010981AD0281A401C00264D4F4D49009643
:101F800001910490002812DA444211E011980124D2
:101F900049A3012801D11098C1430698119A846081
:101FA0000360C26041600BB0F0BD4042E4E704460C
:101FB000210500203F4A001C51410391029012E08C
:101FC000E00707D032463B4601990098FEF71CFB1C
:101FD0000191009032463B4610461946FEF714FB2D
:101FE00006460F466410002CEAD10498039B002893
:101FF000029A0999089806DAFEF706FB019B009AF7
:10200000FEF702FB05E0FEF7CDF8019B009AFEF714
:10201000C9F804460E460022284BFEF77DFB03D884
:102020000020C043014607E00022254B20463146F0
:10203000FEF736FAFEF750FB102409E0002C0ADB0D
:102040000A220023FEF76CF8079B30321A55641EF3
:1020500002460A43F2D11122641C079B121B1C1971
:10206000119B012B03D0012308430ED10AE0084342
:1020700004D0112010900020119077E71098151AC5
:102080006D1E0BE01098824202DD00236D1C03E000
:10209000824201DA00236D1E002BEED006981199C2
:1020A0008260C16030C07EE701FCFFFF104D000080
:1020B000000014400000F03F300000000000F0433A
:1020C0000000E03FFFB597B0064600251BE225283B
:1020D00076D100242746F749049400E00443761C97
:1020E00032780120203A90400842F7D130782A28EF
:1020F0000ED00222307801463039092916D80499C9
:102100000A235943303940181443761C0490F1E7F0
:10211000189802C804911890002904DA012040039D
:1021200004434842049002200443761C30782E2851
:1021300014D1042004437078761C2A2809D11898F9
:10214000761C80C8189009E00A214F43303FC71918
:10215000761C3078014630390929F5D930786C2859
:1021600010D006DC4C281AD068280ED06A2817D167
:1021700004E0742813D07A2812D110E00120400521
:1021800004430CE00121090501E0032109050C438A
:102190007178814203D1012000052418761C761C39
:1021A000307866280BD013DC58287DD009DC002855
:1021B0007BD04528F6D04628F4D047281AD1A9E18B
:1021C00018E0632835D0642870D0652812D1A1E1C9
:1021D00070286CD008DC6728F1D069287DD06E2883
:1021E0000DD06F2806D1BCE073282ED0752873D08F
:1021F000782859D01A9A199990476D1C82E160028B
:10220000400F022809D003280DD00428189801682F
:102210000DD00D60001D189074E11898EA17016840
:102220000D604A60F6E7189801680D80F2E70D70BE
:10223000F0E718986A4601781172001D1890002086
:10224000507202A80090012005E0189802C818906A
:1022500000200091C04361070ED5002101E00199E3
:10226000491C0191B94213DA8142F8DB019A0099C5
:10227000895C0029F3D10BE0002101E00199491CA0
:1022800001918142FADB019A0099895C0029F5D11C
:10229000019904981A9B471A21463846199A00F06A
:1022A00099FA4019019903E051E030E115E050E05E
:1022B000451807E0009800990078491C00911A9A87
:1022C000199990470198401E0190401CF2D1214677
:1022D00038461A9B199A12E137E00A200021009033
:1022E00001916002410F022907D0189A01CA189281
:1022F000C2179446032908D00AE01898C01DC108E7
:10230000C90005C91891944607E000B2C217944667
:10231000042902D140B2C1178C460022614694457F
:1023200006DA0A460021404291418C462D2102E006
:10233000210504D52B216A461173012103E0E10731
:1023400001D02021F7E7029156E00A200AE0102090
:1023500008E0102000900021042004430191082788
:1023600003E008200021019100906002410F022942
:1023700007D0189A01CA189200229446032908D05F
:1023800008E01898C01DC108C90005C918919446F5
:1023900003E080B2042900D1C0B2002102912107DC
:1023A0002AD531780D91702906D0009A1021019B11
:1023B0004A401A4305D00EE040216A4611730121BC
:1023C00008E06146014306D030216A4611730D9939
:1023D000517302210291009A0821019B4A401A433D
:1023E0000AD16146014301D1610705D530216A4612
:1023F000117301217F1E02913178582904D02EA13A
:102400000E910DA90D910DE030A1F9E76146019BF8
:10241000009AFDF785FE0E9B8C469B5C0D9A521E22
:102420000D92137061460143F0D10D9805A9081A69
:1024300020300190600703D501200004844300E0B0
:1024400001270198874201DD381A00E00020019938
:1024500000904118029809180498401A0490E0036B
:1024600006D421461A9B199A049800F0B3F945192D
:10247000002706E003A81A9AC05D199990476D1CC1
:102480007F1C02988742F5DBE0030CD521461A9B9E
:10249000199A049800F09EF9451904E01A9A302020
:1024A000199990476D1C0099481E00900029F5DC91
:1024B0001FE000000928010030313233343536374F
:1024C0003839616263646566000000003031323380
:1024D0003435363738394142434445460000000020
:1024E0000D980D990078491C0D911A9A19999047E9
:1024F0006D1C0199481E01900029F1DC4DE100F0AE
:1025000059F94519761C3078002800D0DFE52846B7
:102510001BB0F0BD600700D406271898C01DC10885
:10252000C90048680A680831C30FDB071891190011
:1025300001D09CA108E0210501D59BA104E0E107A1
:1025400001D09AA100E09AA14300109130785B0875
:1025500065280CD006DC452809D046281DD0472820
:1025600041D141E0662818D067283CD13CE00021E9
:10257000112F01DB112000E0781C0191009008A9C7
:1025800011A8FFF7E5FC139905910021119A159206
:102590007F1C12980197009150E00120C007039022
:1025A0000120019008A9009711A8FFF7D1FC139A08
:1025B000149905920022119B009212981593059A86
:1025C0000192002901D0104602E0791C40180190C8
:1025D000381A01D5019804E04042401E0090781C52
:1025E0000190C01B029043E0012F00DA0127002177
:1025F000112F01DD112000E038460191009008A95B
:1026000011A8FFF7A5FC13990591119A00211298C2
:1026100015920091019721070CD40599B94201DB6D
:10262000019900E00191012904DD159A491E515CD0
:10263000302906D0B84201DA011D05DA01210291E4
:1026400015E00199491EEDE7002805DC00994118C5
:1026500000910199091A03E0019A411C914200DDA1
:1026600001910099401A401C02900120C00703907C
:10267000200706D402990198814202DB0020C04362
:10268000029000206946C87707AF012103980337FD
:10269000C907884224D0022011902B201290039861
:1026A00000280CDA404203902D20129007E00A2106
:1026B0000398FDF71FFD30317F1E0390397011998B
:1026C000481E11900029F2DC03980028EFD1791EF2
:1026D000129808703078202108404530BF1E3870AD
:1026E00006A8C01BC01D039010980078002800D0D9
:1026F0000120019941180298C01709180398091878
:102700000498401A401E0490E00306D421461A9B08
:10271000199A049800F05EF845191098007800287E
:1027200003D01A9A199990476D1CE00324D52146CD
:102730001A9B199A049800F04DF845191CE000986E
:10274000002807DB00990598884203DD1598405C56
:10275000199901E0199930201A9A904700986D1C38
:10276000401C00900298401E0290002804D11A9A42
:102770002E20199990476D1C0199481E019000293F
:10278000DDDC05E038781A9A7F1C199990476D1C9A
:102790000399481E03900029F4DC21461A9B199ADC
:1027A0000498ACE62D0000002B0000002000000083
:1027B00000000000F8B5044600251E4617468804B0
:1027C00004D405E039462020B0476D1C641EF9D5BD
:1027D0002846F8BDFFB50446002581B01E46C80353
:1027E00001D5302700E02027880404D505E03846CD
:1027F0000399B0476D1C641EF9D5284605B0F0BD9D
:102800000A68531C0B6010707047000010B5044636
:102810000548FEF7C7FD04480021026851620068C0
:10282000416AA142FCD310BD1C00002010B50B4C26
:1028300008212046FEF796F8002801D0012010BD9F
:1028400008212046FEF78EF80028F9D008212046FE
:10285000FEF788F80128F9D0002010BD00080050CC
:1028600070B5012000F078F800F08EF8002000F03C
:1028700073F8FFF7DBFF00240D4D00F047F82855F3
:10288000641C64B2052CF8DB00200121285669562F
:102890000322401802216956AA56891840180421BB
:1028A0006956884201D1012070BD002070BD000032
:1028B0000000002010B50848002141560122825630
:1028C00009028818FDF7E6FC0022044BFDF76AFCBC
:1028D000FDF708FD10BD00000000002000002440AE
:1028E00010B5084802214156032282560902881871
:1028F000FDF7D0FC0022044BFDF754FCFDF7F2FC81
:1029000010BD00000000002000002440F8B50024A5
:10291000104E25460127600044B208213046FEF7DC
:1029200021F80028F9D02820FFF770FF0821304651
:10293000FEF718F8012806D13C4308213046FEF77F
:1029400011F80028F9D16D1C6DB2082DE3DB20468B
:10295000F8BD00000008005010B586B004461421F0
:102960006846FDF714FC08200090002001940290B6
:10297000012C00D1039069460248FDF71BFF06B009
:1029800010BD00000008005010B5094C00220821BD
:102990002046FDF7ECFF1220FDF7FAFE0122082188
:1029A0002046FDF7E4FF1E20FFF730FF10BD0000BA
:1029B0000008005038B5044668460470022301221E
:1029C00069460248FEF77AFE204638BD5C000020CA
:1029D0009CB0FDF7E1FFFEF775FFFEF7D9FEFEF7AD
:1029E00017FFFEF74BFF13A0FFF720FA7D26F60036
:1029F000FFF736FF0028FBD0FFF772FF0446FFF712
:102A000059FF07462046FDF759FC04460D46384657
:102A1000FDF754FC02460B460AA102A8019500945A
:102A2000FFF714FA02A90FA0FFF700FA3046FDF7EE
:102A3000AFFEDDE748656C6C6F2053544D33320DAB
:102A40000A00000048756D69646974793A252E3270
:102A5000660954656D70657261747572653A252EEC
:102A60003266000025730D0A0D0A00000000000008
:102A70000000000001020304060708090304060819
:102A80000C101820300000000001020304000000B8
:102A9000B02A0008000000201C000000301F0008C1
:102AA000CC2A00081C000020C4040000401F0008BD
:102AB0000000000000000000010000000400000011
:0C2AC000000000000000200000000000EA
:04000005080000C12E
:00000001FF
