:020000040800F2
:1000000060040020D90000083D120008C10F00085C
:1000100000000000000000000000000000000000E0
:100020000000000000000000000000004112000875
:1000300000000000000000003F120008431200080A
:10004000EB000008EB000008EB000008EB000008E4
:10005000EB000008EB000008EB000008EB000008D4
:10006000EB000008EB000008EB000008EB000008C4
:10007000EB000008EB00000800000000EB000008A7
:1000800000000000EB00000800000000000000007D
:10009000EB00000800000000EB000008EB00000887
:1000A000EB000008EB000008EB000008EB00000884
:1000B000EB000008EB000008EB000008EB00000874
:1000C0000448854600F096F80048004739160008B5
:1000D000C046C046600400200448804704480047EA
:1000E000FEE7FEE7FEE7FEE7FEE7FEE7DD120008BB
:1000F000C100000830B50B46014600202022012433
:1001000009E00D46D5409D4205D31D469540491B4B
:100110002546954040191546521E002DF1DC30BD94
:10012000F0B51FB40646002082B005464024019178
:1001300000901BE0019922460F46304600F049F836
:10014000049A059B801A994110D3104619462246FD
:1001500000F02FF8361A8F41019722460120002126
:10016000009F00F026F838184D4100902046641E8C
:100170000028DFDC019B00982946324607B0F0BD1D
:10018000D2B201E00270401C491EFBD2704700222F
:10019000F6E710B513460A4604461946FFF7F0FF86
:1001A000204610BD421C0178401C0029FBD1801A5A
:1001B000704710B5202A04DB0146203A9140002008
:1001C00010BD914020239C1A0346E3401943904000
:1001D00010BD10B5202A04DB0846203AD04000218B
:1001E00010BD0B46D340D0402024A21A91400843B2
:1001F000194610BD064C0125064E05E0E36807CC04
:100200002B430C3C98471034B442F7D3FFF75CFF04
:10021000D8160008F816000872B6FEE770B5044656
:1002200000F0ECF80546601C02D004480078241861
:1002300000F0E4F8401BA042FAD370BD000000209B
:10024000F8B5002303240125BDE032462E469E402A
:10025000B446324079D00E79B607B60F012E01D0E0
:10026000022E17D186682746B6465E00B740009634
:100270007646BE43B646CF68009EB74076463743C3
:10028000876046686746BE430F79FF06FF0F9F40B1
:10029000374347600E79F643B6070ED0C668274647
:1002A000B4465E00B646B7406646BE43B4468F6865
:1002B0007646B74066463743C7600E79B607B60F35
:1002C000022E14D1DE08B60036180096366A5F0793
:1002D000B446FE0E0F27B646B7406646BE43B44648
:1002E0000F697646B74066463743009E3762066818
:1002F0002746B4465E00B646B7406646BE430F7911
:10030000B446BF07BF0F7646B7406646374307601F
:100310004E68B603B60F55D02E4F7E6B2E437E63CC
:100320009F082D4EBF00BE190096B6680F27B44631
:100330009E07360FB646B7406646BE4305273F07C1
:10034000B446B84202D1002715E03BE0234FB84243
:1003500001D101270FE0224FB84201D102270AE064
:10036000204FB84201D1032705E01F4FB84201D109
:10037000052700E006277646B74066463743009ECD
:10038000B7601A4E36684F689643FF0300D5164390
:10039000164F3E607E684F689643BF0300D51643F4
:1003A000124F7E60BE684F689643FF0200D5164329
:1003B0000E4FBE60FE684F689643BF0200D51643DD
:1003C0000A4AD6605B1C0A681646DA4000D03CE751
:1003D000F8BD000000100240000001400004005081
:1003E00000080050000C0050001C005000040140A8
:1003F000002A01D08161704781627047014880689E
:10040000704700000000002070B50246403253786B
:10041000202B1CD11378012B19D001231370242415
:100420005470046825689D432560046825681E0390
:10043000B5432560046825680D43256000680168A0
:1004400019430160202050700020107070BD022000
:1004500070BD70B5024640325378202B1BD1137803
:10046000012B18D0012414702423537003681D68D5
:10047000A5431D6005682B680F263602B3430902A9
:1004800019432960006801682143016020205070F1
:100490000020107070BD022070BD000070B5040017
:1004A00006D02546403568780026002802D005E0B1
:1004B000012070BD2E70204600F0D2F82420687014
:1004C000206801684908490001600F216068090639
:1004D00088432168086121688A680120C00382433B
:1004E0008A60E1680129A16808D0212292021143A3
:1004F00022689160E168022902D005E00143F7E734
:1005000001212268C902516021684A680F4B1A43D1
:100510004A602168CA688243CA60616920690843E9
:10052000A169090208432168C860216AE06908439B
:100530002168086020680168012211430160666437
:10054000202068702663AE70002070BD008000021D
:10055000FFB5054604464035687881B0202878D13B
:100560002878012875D001202870FFF747FF07463B
:10057000012200901923D103204600F08BFD0028B2
:100580003CD1212068701020A87000266664039872
:100590006062049860856663618D2F48FF2903D9E6
:1005A000FF22228500903BE0618D218500903DE097
:1005B0002046029900F05AFD16E000F0B8FD002830
:1005C0001CD1606A216800788862606A401C6062A1
:1005D000608D401E6085208D401E80B22085618D1B
:1005E000002901D000280CD0608D0A9900283A46D5
:1005F0002046E2D100F075FD00281CD0012005B096
:10060000F0BD00970022802120460A9B00F042FDA9
:100610000028F3D1608DFF2805D9FF22228500969E
:1006200001231B06C4E7608D20850096208D0123E1
:10063000C2B25B06BCE721682020C86121684A6815
:10064000064B1A404A606870AE702E700020D6E7E4
:10065000FFE70220D3E700000020008000E800FE52
:1006600010B586B0044614216846FFF790FD114985
:10067000206888421BD1104CE16A02200143E162EC
:10068000E16A0140032005910002009012200190D0
:10069000012002900320039004200490694607483B
:1006A000FFF7CEFDA06B012149050843A06306B00A
:1006B00010BD000000540040001002400004005033
:1006C0000248816802788918816070470000002024
:1006D00010B50848002401684022114301602046FB
:1006E00000F00AF8002801D0012401E000F026F80B
:1006F000204610BD0020024070B504460D4D7D20FF
:100700002978C000FFF7F6FC01460B480068FFF7A8
:10071000F1FC00F03DFC002809D1042C07D2002296
:100720002146401E00F016F800206C6070BD0120CC
:1007300070BD0000000000200C0000200448416B48
:10074000012211434163816B0204114381637047AD
:100750000010024010B500F0EFFD10BDF8B50446E2
:1007600000680027604D810601D400057ED55E4EED
:10077000403EB06BC00004D4B06B31040843B0639A
:1007800001275A480168C90511D40168821511432F
:100790000160FFF733FE009005E0FFF72FFE0099A0
:1007A000401A642844D851480068C005F5D531681E
:1007B00003200005626801401040884205D10323F0
:1007C000A0681B051840884208D09003800F0328BA
:1007D00004D13068800301D50120F8BD28690321C8
:1007E0000904084029D00A40824202D022789206A9
:1007F00006D4A2680A4082421FD0208800051CD57A
:1008000028692A6988430121C9040A432A612A699F
:100810008A432A612861C0050FD5FFF7EFFD0090DC
:1008200008E0FFF7EBFD0099411A3148814201D9F8
:100830000320F8BD28698005F3D561688803800F1F
:10084000032805D132680005824301400A43326023
:100850002869032261681204114008432861002FAF
:1008600006D0B16B01200007814300E000E0B163D6
:100870002078C00705D0E868E16880088000084358
:10088000E8602078800705D5E8680C218843216955
:100890000843E8602078400706D5E868032189020C
:1008A000884361690843E8602078000706D5E86856
:1008B000032109038843A1690843E86020784006C2
:1008C00006D5E868012189068843216A0843E86063
:1008D0002078000606D5E868032189048843E16989
:1008E0000843E8600020F8BD40100240007000405E
:1008F00088130000F8B50E46050038D05E48006841
:10090000C007C00FB04214D25B4C206840084000C2
:1009100030432060FFF772FD074605E0FFF76EFDEC
:10092000C11B564881427AD82068C007C00FB04228
:10093000F4D12878524C800705D5E068F02188432F
:10094000A9680843E0602878C00752D06868022888
:1009500006D0032807D0216801280AD0890504E0C1
:100960002168890301E021688901002903DB012056
:10097000F8BD4907F9E7E168890889000143E160AA
:10098000FFF73CFD0746686802280AD0032814D008
:1009900001281ED029E0FFF731FDC11B37488142F5
:1009A0003DD8E0680007800F0228F4D121E0FFF76E
:1009B00025FDC11B3148814231D8E0680007800F16
:1009C0000328F4D115E0FFF719FDC11B2B48814224
:1009D00025D8E0680007800F0128F4D109E0FFF76F
:1009E0000DFDC11B2548814219D8E0680007800F22
:1009F000F5D121480168C907C90FB14217D901686B
:100A00004908490031430160FFF7F8FC074608E058
:100A100005E0FFF7F3FCC11B1848814201D9032010
:100A2000F8BD15480068C007C00FB042F1D1287862
:100A3000400706D5E068072109028843E9680843B2
:100A4000E0602878000707D5E0680721C9028843DD
:100A50002969C9000843E06000F01AF8E168094A12
:100A60000906090F515CC84007490860074800683B
:100A7000FFF742FEF8BD000000200240881300008E
:100A800000100240BC1600080C00002004000020EA
:100A900070B5184AD36818490C2018408D000428F6
:100AA0000BD008280ED00C280ED050680004410F3F
:100AB0000120C003491C884070BD1068C00601D4E5
:100AC000284670BD084670BD98020C4C000F205C93
:100AD0001B029C0FD368641CDB0303D41268D2068C
:100AE00000D4294600F010FC22460023FFF718FB33
:100AF00070BD00000010024000093D00CC16000847
:100B0000FEB505007ED0FE4CE7680C20E668074085
:100B10000120000406402878C00747D0082F05D0E0
:100B20000C2F0AD101200004864206D120688003E0
:100B30003CD568680028E5D038E0012069680004E9
:100B4000814203D121680143216011E00523012284
:100B50001B0492049942216802D111432160F1E7FC
:100B6000814321602168014000912068904320600A
:100B7000686800280DD0FFF741FC009005E0FFF702
:100B80003DFC0099401A64287BD820688003F6D584
:100B90000CE0FFF733FC009005E0FFF72FFC009915
:100BA000401A6428F0D820688003F6D4287880079B
:100BB00056D50923E868042F0DD00C2F01D1002E43
:100BC00009D000283CD02168994301432160FFF7F8
:100BD00015FC064628E02168490701D5002891D078
:100BE00061681F22120291432A6912021143616057
:100BF0002168994301432160FFF74AFFE168090634
:100C00000A0F00E0BFE1BF49895CC840BE490860E7
:100C1000BE480068FFF770FD002873D120E0FFF7A1
:100C2000EDFB801B0228AFD820684007F7D560682D
:100C30001F210902884329690902084360600FE007
:100C40002068400840002060FFF7D8FB064604E01B
:100C5000FFF7D4FB801B022896D820684007F7D402
:100C60002878C00660D5002F0CD0E86900284AD04B
:100C70002068FF21013108432060FFF7BFFB0646D3
:100C80002EE0E5E02068800502D5E8690028A6D0BE
:100C90006068072149038843696A084360606068A7
:100CA000298C0002000A090608436060686A410B4B
:100CB0000120C003491C8840E16809060A0F9149D8
:100CC000895CC8409049086090480068FFF714FDAF
:100CD000002817D128E0FFF791FB801B0228A2D83B
:100CE00020688005F7D56068072149038843696A51
:100CF000084360606068298C0002000A0906084306
:100D0000606011E025E12168FF200130814321600E
:100D1000FFF774FB064604E0FFF770FB801B022818
:100D20009AD820688005F7D42878794E000724D512
:100D300068690028306910D0012108433061FFF74D
:100D40005DFB009005E0FFF759FB0099401A02286F
:100D50007ED830698007F6D50FE04008400030614A
:100D6000FFF74CFB009005E0FFF748FB0099401AA5
:100D700002286DD830698007F6D42878400764D5FA
:100D800000200290A06BC00006D4A06B01210907CF
:100D90000843A063012002905E480168C90511D490
:100DA0000168821511430160FFF728FB009005E000
:100DB000FFF724FB0099401A642849D85548006879
:100DC000C005F5D5FF20AA680130824203D1316900
:100DD0000143316111E001218902002A07D0052376
:100DE0001B029A4203D132690A433261EFE732694A
:100DF00082433261306988433061A86800280ED090
:100E0000FFF7FCFA009006E0FFF7F8FA0099411AA4
:100E1000414881421CD830698005F5D50DE0FFF7C7
:100E2000EDFA009006E0FFF7E9FA0099411A3A4816
:100E300081420DD830698005F5D40298002804D08D
:100E4000A16B012000078143A1632878800600E0A0
:100E50007EE02ED53148A9694314002916D0A26836
:100E600001210A43A260626B0A436263016A19436B
:100E70000162FFF7C3FA064604E0FFF7BFFA801BE2
:100E8000022865D8A0688007F7D512E0A168490854
:100E90004900A160016A99430162FFF7AFFA064673
:100EA00004E0FFF7ABFA801B022851D8A068800746
:100EB000F7D4A86A002868D00C2F4FD00126360638
:100EC0000228206805D0B0432060FFF797FA054656
:100ED00040E0B0432060FFF791FA074604E0FFF7D7
:100EE0008DFAC01B022833D820688001F7D4296B03
:100EF000E86AE2680843696BFD231B049A430FE02C
:100F000000100240BC1600080C0000200400002065
:100F100040100240007000408813000000000140B3
:100F200011430843E060206830432060FFF766FA11
:100F3000054604E0FFF762FA401B022808D8206843
:100F40008001F7D521E0FFF759FA401B022801D9AB
:100F50000320FEBD20688001F5D416E00128F8D0FA
:100F6000E06801210904EA6A014091420BD10F2196
:100F700089042A6B0140914205D10321890508406B
:100F8000696B884201D00120FEBD0020FEBD00003B
:100F9000094910B5401E884201D9012010BD074CF7
:100FA00060610321081F00F0C7F90020A06107203D
:100FB0002061002010BD0000FFFFFF0000E000E006
:100FC000FEE701688A69D243920701D400228A624F
:100FD00000688169C943C90703D0816901221143AF
:100FE00081617047F7B5044600680F468169C943BF
:100FF000C90636D44168890104D4416801229203AC
:101000001143416000262546403520688069C04371
:10101000800612D5781CF8D0FFF7F0F90299401A33
:10102000B84201D8002FF0D1616C202001436164E7
:101030006870AE702E700120FEBD21681020C8615E
:1010400020682027C7612046FFF7BBFF2068416862
:10105000054A11404160606C0421084360646F7070
:10106000E7E70020FEBD000000E800FEF0B50668DE
:10107000059C7568064F600D384385438805800DD3
:10108000110408431843204305437560F0BD000078
:10109000FF63FF03F8B51D4617460E46044609E0F8
:1010A000681C07D0FFF7AAF90699401AA8420BD886
:1010B000002D09D020688169304688430FD0002078
:1010C000B842EDD00020F8BD616C2020014361647E
:1010D000403460700020A07020700120F8BD012015
:1010E000EEE770B516460D4604460FE03246294637
:1010F0002046FFF777FF002801D0012070BDFFF7E1
:101100007DF9801BA84208D8002D06D02068806990
:10111000C0438006EAD4002070BD616C20200143EA
:101120006164403460700020A0702070E5E770B505
:1011300016460D46044611E0324629462046FFF782
:1011400051FF002801D0012070BD681C06D0FFF7B8
:1011500055F9801BA84208D8002D06D02068806968
:10116000C0438007E8D4002070BD616C202001439B
:101170006164403460700020A0702070E3E70000DC
:1011800030B587B014216846FFF701F81448C26AE9
:1011900080210A43C262C26A0A400592C16A0124E0
:1011A0002143C162C16A21400591C26A02210A43FA
:1011B000C262C06A052508402D0705900022202143
:1011C0002846FFF715F90021202002910391009095
:1011D000019469462846FFF733F807B030BD000098
:1011E0000010024010B513481149016012494160D6
:1011F000002181600161416181610122C161C260A0
:101200000162FFF74BF9002801D0FFF705F8002134
:101210000848FFF7F9F8002801D0FEF7FDFF00218C
:101220000448FFF716F9002801D0FEF7F5FF10BDBE
:101230000054004010000020BB7C7000FEE77047A7
:10124000704710B5FFF73CFA10BD000010B59CB018
:1012500038216846FEF79BFF142117A8FEF797FF79
:1012600024210EA8FEF793FF1B4801680322D20237
:101270009143C214891801600120010400900220EA
:101280000A90052080040C90880101910D900B912B
:101290006846FFF735FC002801D072B6FEE70F2044
:1012A000179000240320189019941A9401211B947C
:1012B00017A8FFF71FFB002801D072B6FEE7082031
:1012C0000E9014940EA8FFF749FA002801D072B6C8
:1012D000FEE71CB010BD0000007000407047000029
:1012E0000FB410B504A9074B02AA039800F056F8F2
:1012F000044602A9002000F0F9F8204610BC08BC02
:1013000004B01847ED140008F8B5040C8BB226465B
:1013100082B25E430D0C1046370C584336048019D8
:101320000021794116466E43370C36048019794105
:1013300026466E438919F8BD8307FF22DB0E9A40CB
:101340008907090E9940002808DB830809489B009B
:101350001B18186890430843186070470007000F77
:101360000838830804489B001B18D8699043084339
:10137000D861704700E400E000ED00E002E008C83A
:10138000121F08C1002AFAD170477047002001E0FF
:1013900001C1121F002AFBD170470000FFB58DB0BC
:1013A0000446002506E025280AD0109A0F99904798
:1013B000641C6D1C20780028F5D1284611B0F0BDC2
:1013C00000270121484A009700E00743641C237866
:1013D0000846203B98401042F7D120782E2817D19C
:1013E000042007436078641C2A280CD10E98641CE2
:1013F00002C800910E900BE000990A225143303947
:101400004018641C00902078014630390929F3D92E
:1014100020780028D1D0642808D0692806D0752803
:101420001ED0109A0F9990476D1C5BE00A200E9910
:10143000019001C90E91002802DA40422D2102E0FC
:10144000390504D52B216A461172012103E0F90701
:1014500004D02021F7E70BAE0B910DE00021FAE755
:101460000A200E99019001C90E91F7E70199FEF744
:1014700041FE3031761E31700028F7D103A8801B61
:1014800020300190780701D5009801E001200090FC
:101490000199884201DD401A00E0002000270090F9
:1014A00006E002A8109AC05D0F9990476D1C7F1C42
:1014B0000B988742F5DB04E0109A30200F99904793
:1014C0006D1C0099481E00900029F5DC05E030787D
:1014D000109A761C0F9990476D1C0199481E019037
:1014E0000029F4DC641C65E7092801000A68531C24
:1014F0000B601070704710B5012000F06BF80120F0
:10150000FEF78CFE10BD10B50F20FEF787FE3020D1
:1015100000F060F80520FEF781FE302000F05AF858
:101520000120FEF77BFE302000F054F80120FEF78A
:1015300075FE202000F04EF80120FEF76FFE2820F7
:1015400000F048F80120FEF769FE0F2000F042F895
:101550000120FEF763FE012000F03CF80120FEF7B9
:101560005DFE062000F036F80120FEF757FE10BDA4
:1015700070B50D460646002403E0305D00F004F827
:10158000641CAC42F9DB70BD1CB5010909010B46B6
:101590000D336A46137109315171000101460D3155
:1015A00091710930D0717D20C0000090042301AA00
:1015B0004E210648FEF7CCFF0100054801D001226C
:1015C00000E000222021FEF713FF1CBD10000020C8
:1015D000000000501CB5010909010B460C336A4696
:1015E000137108315171000101460C3191710830BD
:1015F000D0717D20C0000090042301AA4E2106482E
:10160000FEF7A6FF0100054801D0012200E00022FC
:101610002021FEF7EDFE1CBD100000200000005050
:101620008901081810B58030C0B2FFF7D3FF012040
:10163000FEF7F4FD10BD00001FB5FFF749F8FFF7F6
:1016400005FEFFF79DFDFFF7CDFDFFF75CFF154C95
:101650007D25ED000FCC03936B4607C300210120CD
:10166000103CFFF7DDFF6846FEF79CFDC1B26846FF
:10167000FFF77EFFFEF7C2FE02460BA16846FFF7AA
:101680002FFE01210320FFF7CBFF6846FEF78AFDFE
:10169000C1B26846FFF76CFF2846FEF7BFFDFFF7B3
:1016A0002AFFD7E7AC1600082564000048656C6C7B
:1016B0006F20576F726C6400000000000000000093
:1016C00000000000010203040607080903040608DD
:1016D0000C10182030000000F81600080000002050
:1016E000100000007C1300080817000810000020FC
:1016F000500400008C1300080100000004000000EA
:081700000000000000002000C1
:04000005080000C12E
:00000001FF
