:020000040800F2
:1000000010040020D9000008C10B0008690B00088B
:1000100000000000000000000000000000000000E0
:10002000000000000000000000000000C50B0008F8
:100030000000000000000000C30B0008C70B000810
:10004000EB000008EB000008EB000008EB000008E4
:10005000EB000008EB000008EB000008EB000008D4
:10006000EB000008EB000008EB000008EB000008C4
:10007000EB000008EB00000800000000EB000008A7
:1000800000000000EB00000800000000000000007D
:10009000EB00000800000000EB000008EB00000887
:1000A000EB000008EB000008EB000008EB00000884
:1000B000EB000008EB000008EB000008EB00000874
:1000C0000448854600F090F800480047DB0C000823
:1000D000C046C0461004002004488047044800473A
:1000E000FEE7FEE7FEE7FEE7FEE7FEE7450C000859
:1000F000C100000830B50B46014600202022012433
:1001000009E00D46D5409D4205D31D469540491B4B
:100110002546954040191546521E002DF1DC30BD94
:10012000F0B51FB40646002082B005464024019178
:1001300000901BE0019922460F46304600F042F83D
:10014000049A059B801A994110D3104619462246FD
:1001500000F028F8361A8F4101972246012000212D
:10016000009F00F01FF838184D4100902046641E93
:100170000028DFDC019B00982946324607B0F0BD1D
:10018000D2B201E00270401C491EFBD2704700222F
:10019000F6E710B513460A4604461946FFF7F0FF86
:1001A000204610BD10B5202A04DB0146203A9140BC
:1001B000002010BD914020239C1A0346E3401943C0
:1001C000904010BD10B5202A04DB0846203AD040EC
:1001D000002110BD0B46D340D0402024A21A9140EC
:1001E0000843194610BD0000064C0125064E05E0E7
:1001F000E36807CC2B430C3C98471034B442F7D348
:10020000FFF762FF2C0D00084C0D000870B5044686
:1002100000F0ECF80546601C02D004480078241871
:1002200000F0E4F8401BA042FAD370BD00000020AB
:10023000F8B5002303240125BDE032462E469E403A
:10024000B446324079D00E79B607B60F012E01D0F0
:10025000022E17D186682746B6465E00B740009644
:100260007646BE43B646CF68009EB74076463743D3
:10027000876046686746BE430F79FF06FF0F9F40C1
:10028000374347600E79F643B6070ED0C668274657
:10029000B4465E00B646B7406646BE43B4468F6875
:1002A0007646B74066463743C7600E79B607B60F45
:1002B000022E14D1DE08B60036180096366A5F07A3
:1002C000B446FE0E0F27B646B7406646BE43B44658
:1002D0000F697646B74066463743009E3762066828
:1002E0002746B4465E00B646B7406646BE430F7921
:1002F000B446BF07BF0F7646B74066463743076030
:100300004E68B603B60F55D02E4F7E6B2E437E63DC
:100310009F082D4EBF00BE190096B6680F27B44641
:100320009E07360FB646B7406646BE4305273F07D1
:10033000B446B84202D1002715E03BE0234FB84253
:1003400001D101270FE0224FB84201D102270AE074
:10035000204FB84201D1032705E01F4FB84201D119
:10036000052700E006277646B74066463743009EDD
:10037000B7601A4E36684F689643FF0300D51643A0
:10038000164F3E607E684F689643BF0300D5164304
:10039000124F7E60BE684F689643FF0200D5164339
:1003A0000E4FBE60FE684F689643BF0200D51643ED
:1003B0000A4AD6605B1C0A681646DA4000D03CE761
:1003C000F8BD000000100240000001400004005091
:1003D00000080050000C0050001C005000040140B8
:1003E000002A01D0816170478162704701488068AE
:1003F00070470000000000200248816802788918D8
:10040000816070470000002010B508480024016892
:10041000402211430160204600F00AF8002801D074
:10042000012401E000F026F8204610BD0020024023
:1004300070B504460D4D7D202978C000FFF75AFEA7
:1004400001460B480068FFF755FE00F075FB0028D9
:1004500009D1042C07D200222146401E00F016F8D4
:1004600000206C6070BD012070BD00000000002005
:100470000C0000200448416B012211434163816B51
:1004800002041143816370470010024010B500F070
:10049000F3FB10BDF8B50E46050038D05E48006885
:1004A000C007C00FB04214D25B4C20684008400027
:1004B00030432060FFF79AFF074605E0FFF796FFFD
:1004C000C11B564881427AD82068C007C00FB0428D
:1004D000F4D12878524C800705D5E068F021884394
:1004E000A9680843E0602878C00752D068680228ED
:1004F00006D0032807D0216801280AD0890504E026
:100500002168890301E021688901002903DB0120BA
:10051000F8BD4907F9E7E168890889000143E1600E
:10052000FFF764FF0746686802280AD0032814D042
:1005300001281ED029E0FFF759FFC11B374881422F
:100540003DD8E0680007800F0228F4D121E0FFF7D2
:100550004DFFC11B3148814231D8E0680007800F50
:100560000328F4D115E0FFF741FFC11B2B4881425E
:1005700025D8E0680007800F0128F4D109E0FFF7D3
:1005800035FFC11B2548814219D8E0680007800F5C
:10059000F5D121480168C907C90FB14217D90168CF
:1005A0004908490031430160FFF720FF074608E092
:1005B00005E0FFF71BFFC11B1848814201D903204A
:1005C000F8BD15480068C007C00FB042F1D12878C7
:1005D000400706D5E068072109028843E968084317
:1005E000E0602878000707D5E0680721C902884342
:1005F0002969C9000843E06000F01AF8E168094A77
:100600000906090F515CC84007490860074800689F
:10061000FFF70EFFF8BD0000002002408813000025
:1006200000100240100D00080C0000200400002003
:1006300070B51A4AD3681A490C2018408D00042856
:100640000CD04E00082810D00C2810D050680004A0
:10065000410F0120C003491C884070BD1068C006CE
:1006600001D5084670BD284670BD304670BD980261
:100670000C4C000F205C1B029C0FD368641CDB0336
:1006800001D5314603E01268D20600D4294600F0B5
:10069000DAFA22460023FFF743FD70BD0010024046
:1006A00000093D00200D0008FEB505007ED0FE4C7F
:1006B000E7680C20E668074001200004064028781F
:1006C000C00747D0082F05D00C2F0AD10120000405
:1006D000864206D1206880033CD568680028E5D0B2
:1006E00038E0012069680004814203D12168014398
:1006F000216011E0052301221B0492049942216824
:1007000002D111432160F1E781432160216801405A
:100710000091206890432060686800280DD0FFF7A2
:1007200065FE009005E0FFF761FE0099401A64281D
:100730007BD820688003F6D50CE0FFF757FE0090C9
:1007400005E0FFF753FE0099401A6428F0D82068AE
:100750008003F6D42878800756D50923E868042F4B
:100760000DD00C2F01D1002E09D000283CD02168DB
:10077000994301432160FFF739FE064628E02168CE
:10078000490701D5002891D061681F2212029143C8
:100790002A69120211436160216899430143216073
:1007A000FFF746FFE16809060A0F00E0BFE1BF4915
:1007B000895CC840BE490860BE480068FFF738FE43
:1007C000002873D120E0FFF711FE801B0228AFD86C
:1007D00020684007F7D560681F210902884329690E
:1007E0000902084360600FE0206840084000206074
:1007F000FFF7FCFD064604E0FFF7F8FD801B02282A
:1008000096D820684007F7D42878C00660D5002F16
:100810000CD0E86900284AD02068FF210131084344
:100820002060FFF7E3FD06462EE0E5E02068800546
:1008300002D5E8690028A6D06068072149038843EB
:10084000696A084360606068298C0002000A090632
:1008500008436060686A410B0120C003491C88405E
:10086000E16809060A0F9149895CC840904908600F
:1008700090480068FFF7DCFD002817D128E0FFF75B
:10088000B5FD801B0228A2D820688005F7D56068D6
:10089000072149038843696A084360606068298CBE
:1008A0000002000A09060843606011E025E12168A2
:1008B000FF20013081432160FFF798FD064604E0E8
:1008C000FFF794FD801B02289AD820688005F7D492
:1008D0002878794E000724D568690028306910D03F
:1008E000012108433061FFF781FD009005E0FFF72B
:1008F0007DFD0099401A02287ED830698007F6D520
:100900000FE0400840003061FFF770FD009005E007
:10091000FFF76CFD0099401A02286DD830698007F6
:10092000F6D42878400764D500200290A06BC00060
:1009300006D4A06B012109070843A063012002909F
:100940005E480168C90511D4016882151143016030
:10095000FFF74CFD009005E0FFF748FD0099401AB5
:10096000642849D855480068C005F5D5FF20AA6815
:100970000130824203D131690143316111E001212B
:100980008902002A07D005231B029A4203D132694B
:100990000A433261EFE7326982433261306988434A
:1009A0003061A86800280ED0FFF720FD009006E017
:1009B000FFF71CFD0099411A414881421CD830695B
:1009C0008005F5D50DE0FFF711FD009006E0FFF77B
:1009D0000DFD0099411A3A4881420DD830698005D1
:1009E000F5D40298002804D0A16B012000078143B0
:1009F000A1632878800600E07EE02ED53148A96901
:100A00004314002916D0A26801210A43A260626B38
:100A10000A436263016A19430162FFF7E7FC064675
:100A200004E0FFF7E3FC801B022865D8A06880077C
:100A3000F7D512E0A16849084900A160016A99430D
:100A40000162FFF7D3FC064604E0FFF7CFFC801BF2
:100A5000022851D8A0688007F7D4A86A002868D077
:100A60000C2F4FD0012636060228206805D0B0434F
:100A70002060FFF7BBFC054640E0B0432060FFF775
:100A8000B5FC074604E0FFF7B1FCC01B022833D8D1
:100A900020688001F7D4296BE86AE2680843696B33
:100AA000FD231B049A430FE000100240100D0008C4
:100AB0000C000020040000204010024000700040A4
:100AC000881300000000014011430843E0602068E3
:100AD00030432060FFF78AFC054604E0FFF786FC00
:100AE000401B022808D820688001F7D521E0FFF7D5
:100AF0007DFC401B022801D90320FEBD2068800137
:100B0000F5D416E00128F8D0E06801210904EA6A6A
:100B1000014091420BD10F2189042A6B014091427F
:100B200005D1032189050840696B884201D0012065
:100B3000FEBD0020FEBD0000094910B5401E8842E0
:100B400001D9012010BD074C60610321081F00F08E
:100B500093F80020A06107202061002010BD000054
:100B6000FFFFFF0000E000E0FEE7000030B587B0C7
:100B700014216846FFF70BFB1048C26A80210A4324
:100B8000C262C26A0A400592C16A01242143C1625D
:100B9000C06A052520402D07059000222021284607
:100BA000FFF71EFC00212020029103910090019488
:100BB00069462846FFF73CFB07B030BD00100240F5
:100BC000FEE77047704710B5FFF716FC10BD000038
:100BD00010B594B038216846FFF7D9FA14210EA851
:100BE000FFF7D5FA164801680322D2029143C214D6
:100BF000891801600220009001210A9003914004AD
:100C00000C900001102100240D900B940491684673
:100C1000FFF74AFD002801D072B6FEE70F200E90C4
:100C200003200F9010941194012112940EA8FFF745
:100C300031FC002801D072B6FEE714B010BD0000F0
:100C4000007000407047F8B5040C8BB2264682B2A3
:100C50005E430D0C1046370C5843360480190021B2
:100C6000794116466E43370C360480197941264681
:100C70006E438919F8BD00008307FF22DB0E9A40FE
:100C80008907090E9940002808DB830809489B0062
:100C90001B18186890430843186070470007000F3E
:100CA0000838830804489B001B18D8699043084300
:100CB000D861704700E400E000ED00E002E008C801
:100CC000121F08C1002AFAD170477047002001E0C6
:100CD00001C1121F002AFBD17047FFF795FBFFF7F8
:100CE00077FFFFF743FF05252D07FF24F53400228A
:100CF00020212846FFF774FB2046FFF787FA0122E0
:100D000020212846FFF76CFB2046FFF77FFAEEE72D
:100D100000000000000000000102030406070809AB
:100D2000030406080C101820300000004C0D0008C9
:100D30000000002010000000BC0C00085C0D000842
:100D40001000002000040000CC0C0008010000008E
:0C0D500004000000000000000000200073
:04000005080000C12E
:00000001FF
