:020000040800F2
:1000000050040020D9000008190E0008450D000812
:1000100000000000000000000000000000000000E0
:100020000000000000000000000000001D0E00089D
:1000300000000000000000001B0E00081F0E00085A
:10004000EB000008EB000008EB000008EB000008E4
:10005000EB000008EB000008EB000008EB000008D4
:10006000EB000008EB000008EB000008EB000008C4
:10007000EB000008EB00000800000000EB000008A7
:1000800000000000EB00000800000000000000007D
:10009000EB00000800000000EB000008EB00000887
:1000A000EB000008EB000008EB000008EB00000884
:1000B000EB000008EB000008EB000008EB00000874
:1000C0000448854600F090F80048004725100008D5
:1000D000C046C046500400200448804704480047FA
:1000E000FEE7FEE7FEE7FEE7FEE7FEE79D0E0008FF
:1000F000C100000830B50B46014600202022012433
:1001000009E00D46D5409D4205D31D469540491B4B
:100110002546954040191546521E002DF1DC30BD94
:10012000F0B51FB40646002082B005464024019178
:1001300000901BE0019922460F46304600F042F83D
:10014000049A059B801A994110D3104619462246FD
:1001500000F028F8361A8F4101972246012000212D
:10016000009F00F01FF838184D4100902046641E93
:100170000028DFDC019B00982946324607B0F0BD1D
:10018000D2B201E00270401C491EFBD2704700222F
:10019000F6E710B513460A4604461946FFF7F0FF86
:1001A000204610BD10B5202A04DB0146203A9140BC
:1001B000002010BD914020239C1A0346E3401943C0
:1001C000904010BD10B5202A04DB0846203AD040EC
:1001D000002110BD0B46D340D0402024A21A9140EC
:1001E0000843194610BD0000064C0125064E05E0E7
:1001F000E36807CC2B430C3C98471034B442F7D348
:10020000FFF762FF681000088810000872B6FEE76A
:10021000F8B5002303240125BDE032462E469E405A
:10022000B446324079D00E79B607B60F012E01D010
:10023000022E17D186682746B6465E00B740009664
:100240007646BE43B646CF68009EB74076463743F3
:10025000876046686746BE430F79FF06FF0F9F40E1
:10026000374347600E79F643B6070ED0C668274677
:10027000B4465E00B646B7406646BE43B4468F6895
:100280007646B74066463743C7600E79B607B60F65
:10029000022E14D1DE08B60036180096366A5F07C3
:1002A000B446FE0E0F27B646B7406646BE43B44678
:1002B0000F697646B74066463743009E3762066848
:1002C0002746B4465E00B646B7406646BE430F7941
:1002D000B446BF07BF0F7646B74066463743076050
:1002E0004E68B603B60F55D02E4F7E6B2E437E63FD
:1002F0009F082D4EBF00BE190096B6680F27B44662
:100300009E07360FB646B7406646BE4305273F07F1
:10031000B446B84202D1002715E03BE0234FB84273
:1003200001D101270FE0224FB84201D102270AE094
:10033000204FB84201D1032705E01F4FB84201D139
:10034000052700E006277646B74066463743009EFD
:10035000B7601A4E36684F689643FF0300D51643C0
:10036000164F3E607E684F689643BF0300D5164324
:10037000124F7E60BE684F689643FF0200D5164359
:100380000E4FBE60FE684F689643BF0200D516430D
:100390000A4AD6605B1C0A681646DA4000D03CE781
:1003A000F8BD0000001002400000014000040050B1
:1003B00000080050000C0050001C005000040140D8
:1003C000426913460B401B0491430B438361704702
:1003D000002A01D0816170478162704701488068BE
:1003E00070470000000000200248816802788918E8
:1003F000816070470000002010B5084800240168A3
:10040000402211430160204600F00AF8002801D084
:10041000012401E000F026F8204610BD0020024033
:1004200070B504460D4D7D202978C000FFF762FEAF
:1004300001460B480068FFF75DFE00F071FB0028E5
:1004400009D1042C07D200222146401E00F016F8E4
:1004500000206C6070BD012070BD00000000002015
:100460000C0000200448416B012211434163816B61
:1004700002041143816370470010024010B500F080
:100480008BFD10BDF8B50E46050038D05E480068FB
:10049000C007C00FB04214D25B4C20684008400037
:1004A00030432060FFF79AFF074605E0FFF796FF0D
:1004B000C11B564881427AD82068C007C00FB0429D
:1004C000F4D12878524C800705D5E068F0218843A4
:1004D000A9680843E0602878C00752D068680228FD
:1004E00006D0032807D0216801280AD0890504E036
:1004F0002168890301E021688901002903DB0120CB
:10050000F8BD4907F9E7E168890889000143E1601E
:10051000FFF764FF0746686802280AD0032814D052
:1005200001281ED029E0FFF759FFC11B374881423F
:100530003DD8E0680007800F0228F4D121E0FFF7E2
:100540004DFFC11B3148814231D8E0680007800F60
:100550000328F4D115E0FFF741FFC11B2B4881426E
:1005600025D8E0680007800F0128F4D109E0FFF7E3
:1005700035FFC11B2548814219D8E0680007800F6C
:10058000F5D121480168C907C90FB14217D90168DF
:100590004908490031430160FFF720FF074608E0A2
:1005A00005E0FFF71BFFC11B1848814201D903205A
:1005B000F8BD15480068C007C00FB042F1D12878D7
:1005C000400706D5E068072109028843E968084327
:1005D000E0602878000707D5E0680721C902884352
:1005E0002969C9000843E06000F01AF8E168094A87
:1005F0000906090F515CC8400749086007480068B0
:10060000FFF70EFFF8BD0000002002408813000035
:10061000001002404C1000080C00002004000020D4
:1006200070B5184AD36818490C2018408D0004286A
:100630000BD008280ED00C280ED050680004410FB3
:100640000120C003491C884070BD1068C00601D459
:10065000284670BD084670BD98020C4C000F205C07
:100660001B029C0FD368641CDB0303D41268D20600
:1006700000D4294600F077FC22460023FFF750FD06
:1006800070BD00000010024000093D005C10000831
:10069000FEB505007ED0FE4CE7680C20E6680740FA
:1006A0000120000406402878C00747D0082F05D055
:1006B0000C2F0AD101200004864206D12068800355
:1006C0003CD568680028E5D038E00120696800045E
:1006D000814203D121680143216011E005230122F9
:1006E0001B0492049942216802D111432160F1E771
:1006F000814321602168014000912068904320607F
:10070000686800280DD0FFF769FE009005E0FFF74C
:1007100065FE0099401A64287BD820688003F6D5CE
:100720000CE0FFF75BFE009005E0FFF757FE009935
:10073000401A6428F0D820688003F6D4287880070F
:1007400056D50923E868042F0DD00C2F01D1002EB7
:1007500009D000283CD02168994301432160FFF76C
:100760003DFE064628E02168490701D5002891D0C2
:1007700061681F22120291432A69120211436160CB
:100780002168994301432160FFF74AFFE1680906A8
:100790000A0F00E0BFE1BF49895CC840BE4908605C
:1007A000BE480068FFF73CFE002873D120E0FFF749
:1007B00015FE801B0228AFD820684007F7D5606877
:1007C0001F210902884329690902084360600FE07C
:1007D0002068400840002060FFF700FE064604E065
:1007E000FFF7FCFD801B022896D820684007F7D44D
:1007F0002878C00660D5002F0CD0E86900284AD0C0
:100800002068FF21013108432060FFF7E7FD06461D
:100810002EE0E5E02068800502D5E8690028A6D032
:100820006068072149038843696A0843606060681B
:10083000298C0002000A090608436060686A410BBF
:100840000120C003491C8840E16809060A0F91494C
:10085000895CC8409049086090480068FFF7E0FD57
:10086000002817D128E0FFF7B9FD801B0228A2D885
:1008700020688005F7D56068072149038843696AC5
:10088000084360606068298C0002000A090608437A
:10089000606011E025E12168FF2001308143216083
:1008A000FFF79CFD064604E0FFF798FD801B022839
:1008B0009AD820688005F7D42878794E000724D587
:1008C00068690028306910D0012108433061FFF7C2
:1008D00085FD009005E0FFF781FD0099401A022890
:1008E0007ED830698007F6D50FE0400840003061BF
:1008F000FFF774FD009005E0FFF770FD0099401AC6
:1009000002286DD830698007F6D42878400764D56E
:1009100000200290A06BC00006D4A06B0121090743
:100920000843A063012002905E480168C90511D404
:100930000168821511430160FFF750FD009005E04A
:10094000FFF74CFD0099401A642849D855480068C3
:10095000C005F5D5FF20AA680130824203D1316974
:100960000143316111E001218902002A07D00523EA
:100970001B029A4203D132690A433261EFE73269BE
:1009800082433261306988433061A86800280ED004
:10099000FFF724FD009006E0FFF720FD0099411AC3
:1009A000414881421CD830698005F5D50DE0FFF73C
:1009B00015FD009006E0FFF711FD0099411A3A4835
:1009C00081420DD830698005F5D40298002804D002
:1009D000A16B012000078143A1632878800600E015
:1009E0007EE02ED53148A9694314002916D0A268AB
:1009F00001210A43A260626B0A436263016A1943E0
:100A00000162FFF7EBFC064604E0FFF7E7FC801B02
:100A1000022865D8A0688007F7D512E0A1684908C8
:100A20004900A160016A99430162FFF7D7FC0646BD
:100A300004E0FFF7D3FC801B022851D8A068800790
:100A4000F7D4A86A002868D00C2F4FD001263606AC
:100A50000228206805D0B0432060FFF7BFFC0546A0
:100A600040E0B0432060FFF7B9FC074604E0FFF721
:100A7000B5FCC01B022833D820688001F7D4296B4D
:100A8000E86AE2680843696BFD231B049A430FE0A0
:100A9000001002404C1000080C0000200400002050
:100AA0004010024000700040881300000000014028
:100AB00011430843E060206830432060FFF78EFC5C
:100AC000054604E0FFF78AFC401B022808D820688E
:100AD0008001F7D521E0FFF781FC401B022801D9F6
:100AE0000320FEBD20688001F5D416E00128F8D06F
:100AF000E06801210904EA6A014091420BD10F210B
:100B000089042A6B0140914205D1032189050840DF
:100B1000696B884201D00120FEBD0020FEBD0000AF
:100B2000094910B5401E884201D9012010BD074C6B
:100B300060610321081F00F02FFA0020A061072048
:100B40002061002010BD0000FFFFFF0000E000E07A
:100B5000F0B502462032137E012B1ED001251576FA
:100B60000223537606687468B3687027BC430F6825
:100B7000274377600068AC07A04205D0084CA0422C
:100B800002D0084CA04204D180244968A3431943F1
:100B90008160557600201076F0BD0220F0BD000087
:100BA000000801400014014070B5050005D02C4636
:100BB0002034607E002802D006E0012070BD0020B5
:100BC0002076284600F010F802206076291D28685B
:100BD00000F066F90120A077A076E07620776077B4
:100BE0006076002070BD00000068012189078842FE
:100BF00004D10348816B01221143816370470000D7
:100C000000100240014620314A7E012A01D0012015
:100C1000704702224A76006852070121904205D0AF
:100C2000074A904202D0074A904204D18268520794
:100C3000520F062A02D002680A4302600020704761
:100C4000000801400014014001680A6A054B1A427D
:100C500003D10A68520852000A600121203041760F
:100C60000020704711110000F8B5054604462035F4
:100C7000287E0026012817D00120287602206876D9
:100C8000226890687727FF23B8431B02984390603F
:100C90000868502838D00EDC20284FD006DC002809
:100CA0004CD010281ED149E00220F8BD302845D094
:100CB000402817D13AE060282ED0702819D00122A0
:100CC0001203801A0FD090420CD1CB684A68896811
:100CD000206800F011F92068816801229203114315
:100CE000816000E0012601206876002028763046E9
:100CF000F8BDCB684A688968206800F0FDF8216873
:100D0000886838438860EEE7CA684968206800F060
:100D100006F95021206806E0CA684968206800F09A
:100D20000FF96021206800F0F2F8DCE7CA68496832
:100D3000206800F0F4F840212068F4E722680146BA
:100D40001046F0E7FEE7000030B587B01421684692
:100D5000FFF71DFA1348C26A80210A43C262C26AC1
:100D60000A400592C26A04210A43C262C26A0A406A
:100D70000592C16A01242143C162C06A0A4D204024
:100D80000590002221462846FFF722FB0021029110
:100D900003910094019469462846FFF739FA07B099
:100DA00030BD0000001002400008005010B586B0B1
:100DB00000240094012116480194029403940494A1
:100DC0008907059401601F21846041600461114915
:100DD0004461C160FFF7E8FE002801D0FFF716FA72
:100DE00001200003009069460948FFF73DFF0028F5
:100DF00001D0FFF70BFA049404A905480594FFF706
:100E0000A7FE002801D0FFF701FA06B010BD0000D0
:100E100010000020FFFF0000FEE77047704710B58C
:100E2000FFF7E2FA10BD000000B593B03821684624
:100E3000FFF7ADF914210EA8FFF7A9F916480168CC
:100E40000322D2029143C2148918016001200104D7
:100E5000009002200A90052080040C9088010191E6
:100E60000D900B916846FFF713FC002801D072B675
:100E7000FEE70F200E9003200F900020109011909D
:100E8000129001210EA8FFF7FDFA002801D072B6DA
:100E9000FEE713B000BD0000007000407047000086
:100EA00070B5026801239B07114C124D984203D084
:100EB000A04201D0A84203D17026B2434E6832430B
:100EC000984203D0A04201D0A84204D103231B02C0
:100ED0009A43CB681A4380239A430B691A430260F2
:100EE0008A68C262096881620121416170BD0000A7
:100EF000000801400014014030B58468FF252D0230
:100F00001B021343AC430B432343836030BD826811
:100F100070239A430A4307210A438260704730B521
:100F2000036A046A6408640004628469F025AC43BF
:100F3000120122430A24A3430B438261036230BDA2
:100F400030B5036A1024A34303628469036A0F2542
:100F50002D031203AC432243A024A34309011943E8
:100F60008261016230BDF8B5040C8BB2264682B2B4
:100F70005E430D0C1046370C58433604801900218F
:100F8000794116466E43370C36048019794126465E
:100F90006E438919F8BD00008307FF22DB0E9A40DB
:100FA0008907090E9940002808DB830809489B003F
:100FB0001B18186890430843186070470007000F1B
:100FC0000838830804489B001B18D86990430843DD
:100FD000D861704700E400E000ED00E002E008C8DE
:100FE000121F08C1002AFAD170477047002001E0A3
:100FF00001C1121F002AFBD17047000010B5044642
:101000000748FFF7FFFD06480021026851620068AB
:10101000416AA142FCD30248FFF716FE10BD000052
:1010200010000020FFF7E8F9FFF7FEFEFFF78CFE47
:10103000FFF7BCFE044C01212046FFF7C1F96420F4
:10104000FFF7DCFFF7E70000000800500000000099
:101050000000000001020304060708090304060853
:101060000C1018203000000088100008000000203C
:1010700010000000DC0F000898100008100000208D
:1010800040040000EC0F0008010000000400000014
:08109000000000000000200038
:04000005080000C12E
:00000001FF
