:020000040800F2
:10000000E00D0020D90000089D12000849100008EA
:1000100000000000000000000000000000000000E0
:10002000000000000000000000000000A112000815
:1000300000000000000000009F120008A31200084A
:10004000EB000008EB000008EB000008EB000008E4
:10005000EB000008EB000008EB000008EB000008D4
:10006000EB000008EB000008EB000008EB000008C4
:10007000EB000008EB00000800000000EB000008A7
:1000800000000000EB00000800000000000000007D
:10009000EB00000800000000EB000008EB00000887
:1000A000EB000008EB000008EB000008EB00000884
:1000B000EB000008EB000008EB000008EB00000874
:1000C0000448854600F0A2F80048004729140008BB
:1000D000C046C046E00D0020044880470448004761
:1000E000FEE7FEE7FEE7FEE7FEE7FEE73D1300085A
:1000F000C100000830B50B46014600202022012433
:1001000009E00D46D5409D4205D31D469540491B4B
:100110002546954040191546521E002DF1DC30BD94
:10012000F0B51FB40646002082B005464024019178
:1001300000901BE0019922460F46304600F054F82B
:10014000049A059B801A994110D3104619462246FD
:1001500000F03AF8361A8F4101972246012000211B
:10016000009F00F031F838184D4100902046641E81
:100170000028DFDC019B00982946324607B0F0BD1D
:1001800003460B439B0703D009E008C9121F08C0B0
:10019000042AFAD203E00B780370401C491C521E5B
:1001A000F9D27047D2B201E00270401C491EFBD266
:1001B00070470022F6E710B513460A460446194672
:1001C000FFF7F0FF204610BD10B5202A04DB0146E2
:1001D000203A9140002010BD914020239C1A0346F4
:1001E000E3401943904010BD10B5202A04DB0846B7
:1001F000203AD040002110BD0B46D340D0402024EF
:10020000A21A91400843194610BD0000064C012572
:10021000064E05E0E36807CC2B430C3C98471034AE
:10022000B442F7D3FFF750FF3816000858160008FD
:1002300070B58C180578401C6B075B0F01D10378F3
:10024000401C2A1106D10278401C03E006780E708B
:10025000401C491C5B1EF9D12B0705D40023521EFC
:100260000DD40B70491CFAE70378401CCB1A921C82
:1002700003E01D780D70491C5B1C521EF9D5A1428C
:10028000D8D3002070BD72B6FEE7000070B50446FA
:1002900000F0E6F80546601C02D0044800782418F7
:1002A00000F0DEF8401BA042FAD370BD7C030020B2
:1002B000F8B5002303240125BDE032462E469E40BA
:1002C000B446324079D00E79B607B60F012E01D070
:1002D000022E17D186682746B6465E00B7400096C4
:1002E0007646BE43B646CF68009EB7407646374353
:1002F000876046686746BE430F79FF06FF0F9F4041
:10030000374347600E79F643B6070ED0C6682746D6
:10031000B4465E00B646B7406646BE43B4468F68F4
:100320007646B74066463743C7600E79B607B60FC4
:10033000022E14D1DE08B60036180096366A5F0722
:10034000B446FE0E0F27B646B7406646BE43B446D7
:100350000F697646B74066463743009E37620668A7
:100360002746B4465E00B646B7406646BE430F79A0
:10037000B446BF07BF0F7646B740664637430760AF
:100380004E68B603B60F55D02E4F7E6B2E437E635C
:100390009F082D4EBF00BE190096B6680F27B446C1
:1003A0009E07360FB646B7406646BE4305273F0751
:1003B000B446B84202D1002715E03BE0234FB842D3
:1003C00001D101270FE0224FB84201D102270AE0F4
:1003D000204FB84201D1032705E01F4FB84201D199
:1003E000052700E006277646B74066463743009E5D
:1003F000B7601A4E36684F689643FF0300D5164320
:10040000164F3E607E684F689643BF0300D5164383
:10041000124F7E60BE684F689643FF0200D51643B8
:100420000E4FBE60FE684F689643BF0200D516436C
:100430000A4AD6605B1C0A681646DA4000D03CE7E0
:10044000F8BD000000100240000001400004005010
:1004500000080050000C0050001C00500004014037
:1004600001488068704700007C03002070B5024698
:1004700040325378202B1CD11378012B19D0012343
:10048000137024245470046825689D432560046813
:1004900025681E03B5432560046825680D43256063
:1004A000006801681943016020205070002010701E
:1004B00070BD022070BD70B5024640325378202BCB
:1004C0001BD11378012B18D00124147024235370EE
:1004D00003681D68A5431D6005682B680F2636025A
:1004E000B343090219432960006801682143016090
:1004F000202050700020107070BD022070BD0000E0
:1005000004494A6B01231A434A6303494A68024378
:100510004A607047001002400000014070B50400BE
:1005200006D02546403568780026002802D005E030
:10053000012070BD2E70204600F0D2F82420687093
:10054000206801684908490001600F2160680906B8
:1005500088432168086121688A680120C0038243BA
:100560008A60E1680129A16808D021229202114322
:1005700022689160E168022902D005E00143F7E7B3
:1005800001212268C902516021684A680F4B1A4351
:100590004A602168CA688243CA6061692069084369
:1005A000A169090208432168C860216AE06908431B
:1005B00021680860206801680122114301606664B7
:1005C000202068702663AE70002070BD008000029D
:1005D000FFB5054604464035687881B0202878D1BB
:1005E0002878012875D001202870FFF739FF0746C9
:1005F000012200901923D103204600F08FFD00282E
:100600003CD1212068701020A870002666640398F1
:100610006062049860856663618D2F48FF2903D965
:10062000FF22228500903BE0618D218500903DE016
:100630002046029900F05EFD16E000F0BCFD0028A7
:100640001CD1606A216800788862606A401C606220
:10065000608D401E6085208D401E80B22085618D9A
:10066000002901D000280CD0608D0A9900283A4654
:100670002046E2D100F079FD00281CD0012005B011
:10068000F0BD00970022802120460A9B00F046FD25
:100690000028F3D1608DFF2805D9FF22228500961E
:1006A00001231B06C4E7608D20850096208D012361
:1006B000C2B25B06BCE721682020C86121684A6895
:1006C000064B1A404A606870AE702E700020D6E764
:1006D000FFE70220D3E700000020008000E800FED2
:1006E00010B586B0044614216846FFF762FD114933
:1006F000206888421BD1104CE16A02200143E1626C
:10070000E16A01400320059100020090122001904F
:1007100001200290032003900420049069460748BA
:10072000FFF7C6FDA06B012149050843A06306B091
:1007300010BD0000005400400010024000040050B2
:100740000248816802788918816070477C03002024
:1007500010B508480024016840221143016020467A
:1007600000F00AF8002801D0012401E000F026F88A
:10077000204610BD0020024070B504460D4D7D207E
:100780002978C000FFF7B6FC01460B480068FFF768
:10079000B1FC00F041FC002809D1042C07D2002252
:1007A0002146401E00F016F800206C6070BD01204C
:1007B00070BD00007C030020880300200448416BCA
:1007C000012211434163816B02041143816370472D
:1007D0000010024010B500F0CBFD10BDF8B5044686
:1007E00000680027604D810601D400057ED55E4E6D
:1007F000403EB06BC00004D4B06B31040843B0631A
:1008000001275A480168C90511D4016882151143AE
:100810000160FFF725FE009005E0FFF721FE00993B
:10082000401A642844D851480068C005F5D531689D
:1008300003200005626801401040884205D103236F
:10084000A0681B051840884208D09003800F032839
:1008500004D13068800301D50120F8BD2869032147
:100860000904084029D00A40824202D02278920628
:1008700006D4A2680A4082421FD0208800051CD5F9
:1008800028692A6988430121C9040A432A612A691F
:100890008A432A612861C0050FD5FFF7E1FD00906A
:1008A00008E0FFF7DDFD0099411A3148814201D986
:1008B0000320F8BD28698005F3D561688803800F9F
:1008C000032805D132680005824301400A433260A3
:1008D0002869032261681204114008432861002F2F
:1008E00006D0B16B01200007814300E000E0B16356
:1008F0002078C00705D0E868E168800880000843D8
:10090000E8602078800705D5E8680C2188432169D4
:100910000843E8602078400706D5E868032189028B
:10092000884361690843E8602078000706D5E868D5
:10093000032109038843A1690843E8602078400641
:1009400006D5E868012189068843216A0843E860E2
:100950002078000606D5E868032189048843E16908
:100960000843E8600020F8BD4010024000700040DD
:1009700088130000F8B50E46050038D05E480068C0
:10098000C007C00FB04214D25B4C20684008400042
:1009900030432060FFF764FD074605E0FFF760FD88
:1009A000C11B564881427AD82068C007C00FB042A8
:1009B000F4D12878524C800705D5E068F0218843AF
:1009C000A9680843E0602878C00752D06868022808
:1009D00006D0032807D0216801280AD0890504E041
:1009E0002168890301E021688901002903DB0120D6
:1009F000F8BD4907F9E7E168890889000143E1602A
:100A0000FFF72EFD0746686802280AD0032814D095
:100A100001281ED029E0FFF723FDC11B3748814282
:100A20003DD8E0680007800F0228F4D121E0FFF7ED
:100A300017FDC11B3148814231D8E0680007800FA3
:100A40000328F4D115E0FFF70BFDC11B2B488142B1
:100A500025D8E0680007800F0128F4D109E0FFF7EE
:100A6000FFFCC11B2548814219D8E0680007800FB0
:100A7000F5D121480168C907C90FB14217D90168EA
:100A80004908490031430160FFF7EAFC074608E0E6
:100A900005E0FFF7E5FCC11B1848814201D903209E
:100AA000F8BD15480068C007C00FB042F1D12878E2
:100AB000400706D5E068072109028843E968084332
:100AC000E0602878000707D5E0680721C90288435D
:100AD0002969C9000843E06000F01AF8E168094A92
:100AE0000906090F515CC8400749086007480068BB
:100AF000FFF742FEF8BD000000200240881300000E
:100B0000001002401C16000888030020800300200B
:100B100070B51A4AD3681A490C2018408D00042871
:100B20000CD04E00082810D00C2810D050680004BB
:100B3000410F0120C003491C884070BD1068C006E9
:100B400001D5084670BD284670BD304670BD98027C
:100B50000C4C000F205C1B029C0FD368641CDB0351
:100B600001D5314603E01268D20600D4294600F0D0
:100B7000E6FB22460023FFF7D3FA70BD00100240C7
:100B800000093D002C160008FEB505007ED0FE4C85
:100B9000E7680C20E668074001200004064028783A
:100BA000C00747D0082F05D00C2F0AD10120000420
:100BB000864206D1206880033CD568680028E5D0CD
:100BC00038E0012069680004814203D121680143B3
:100BD000216011E0052301221B049204994221683F
:100BE00002D111432160F1E7814321602168014076
:100BF0000091206890432060686800280DD0FFF7BE
:100C00002FFC009005E0FFF72BFC0099401A6428A8
:100C10007BD820688003F6D50CE0FFF721FC00901C
:100C200005E0FFF71DFC0099401A6428F0D8206801
:100C30008003F6D42878800756D50923E868042F66
:100C40000DD00C2F01D1002E09D000283CD02168F6
:100C5000994301432160FFF703FC064628E0216821
:100C6000490701D5002891D061681F2212029143E3
:100C70002A6912021143616021689943014321608E
:100C8000FFF746FFE16809060A0F00E0BFE1BF4930
:100C9000895CC840BE490860BE480068FFF76CFD2B
:100CA000002873D120E0FFF7DBFB801B0228AFD8C0
:100CB00020684007F7D560681F2109028843296929
:100CC0000902084360600FE020684008400020608F
:100CD000FFF7C6FB064604E0FFF7C2FB801B0228B5
:100CE00096D820684007F7D42878C00660D5002F32
:100CF0000CD0E86900284AD02068FF210131084360
:100D00002060FFF7ADFB06462EE0E5E02068800599
:100D100002D5E8690028A6D0606807214903884306
:100D2000696A084360606068298C0002000A09064D
:100D300008436060686A410B0120C003491C884079
:100D4000E16809060A0F9149895CC840904908602A
:100D500090480068FFF710FD002817D128E0FFF742
:100D60007FFB801B0228A2D820688005F7D5606829
:100D7000072149038843696A084360606068298CD9
:100D80000002000A09060843606011E025E12168BD
:100D9000FF20013081432160FFF762FB064604E03B
:100DA000FFF75EFB801B02289AD820688005F7D4E5
:100DB0002878794E000724D568690028306910D05A
:100DC000012108433061FFF74BFB009005E0FFF77E
:100DD00047FB0099401A02287ED830698007F6D573
:100DE0000FE0400840003061FFF73AFB009005E05B
:100DF000FFF736FB0099401A02286DD8306980074A
:100E0000F6D42878400764D500200290A06BC0007B
:100E100006D4A06B012109070843A06301200290BA
:100E20005E480168C90511D401688215114301604B
:100E3000FFF716FB009005E0FFF712FB0099401A40
:100E4000642849D855480068C005F5D5FF20AA6830
:100E50000130824203D131690143316111E0012146
:100E60008902002A07D005231B029A4203D1326966
:100E70000A433261EFE73269824332613069884365
:100E80003061A86800280ED0FFF7EAFA009006E06B
:100E9000FFF7E6FA0099411A414881421CD83069AF
:100EA0008005F5D50DE0FFF7DBFA009006E0FFF7CF
:100EB000D7FA0099411A3A4881420DD83069800525
:100EC000F5D40298002804D0A16B012000078143CB
:100ED000A1632878800600E07EE02ED53148A9691C
:100EE0004314002916D0A26801210A43A260626B54
:100EF0000A436263016A19430162FFF7B1FA0646C9
:100F000004E0FFF7ADFA801B022865D8A0688007CF
:100F1000F7D512E0A16849084900A160016A994328
:100F20000162FFF79DFA064604E0FFF799FA801B7D
:100F3000022851D8A0688007F7D4A86A002868D092
:100F40000C2F4FD0012636060228206805D0B0436A
:100F50002060FFF785FA054640E0B0432060FFF7C8
:100F60007FFA074604E0FFF77BFAC01B022833D85C
:100F700020688001F7D4296BE86AE2680843696B4E
:100F8000FD231B049A430FE0001002401C160008CA
:100F900088030020800300204010024000700040C1
:100FA000881300000000014011430843E0602068FE
:100FB00030432060FFF754FA054604E0FFF750FA8B
:100FC000401B022808D820688001F7D521E0FFF7F0
:100FD00047FA401B022801D90320FEBD206880018A
:100FE000F5D416E00128F8D0E06801210904EA6A86
:100FF000014091420BD10F2189042A6B014091429B
:1010000005D1032189050840696B884201D0012080
:10101000FEBD0020FEBD0000094910B5401E8842FB
:1010200001D9012010BD074C60610321081F00F0A9
:101030009FF90020A06107202061002010BD000062
:10104000FFFFFF0000E000E0FEE701688A69D2438D
:10105000920701D400228A6200688169C943C907E6
:1010600003D081690122114381617047F7B50446BD
:1010700000680F468169C943C90636D441688901B1
:1010800004D44168012292031143416000262546A1
:10109000403520688069C043800612D5781CF8D09E
:1010A000FFF7DEF90299401AB84201D8002FF0D1BB
:1010B000616C2020014361646870AE702E70012065
:1010C000FEBD21681020C86120682027C761204626
:1010D000FFF7BBFF20684168054A11404160606C22
:1010E0000421084360646F70E7E70020FEBD000044
:1010F00000E800FEF0B50668059C7568064F600DB7
:10110000384385438805800D110408431843204364
:1011100005437560F0BD0000FF63FF03F8B51D4691
:1011200017460E46044609E0681C07D0FFF798F9F9
:101130000699401AA8420BD8002D09D02068816971
:10114000304688430FD00020B842EDD00020F8BDD3
:10115000616C202001436164403460700020A07005
:1011600020700120F8BD0120EEE770B516460D464F
:1011700004460FE0324629462046FFF777FF002855
:1011800001D0012070BDFFF76BF9801BA84208D881
:10119000002D06D020688069C0438006EAD4002074
:1011A00070BD616C20200143616440346070002098
:1011B000A0702070E5E770B516460D46044611E0B4
:1011C000324629462046FFF751FF002801D0012072
:1011D00070BD681C06D0FFF743F9801BA84208D8F1
:1011E000002D06D020688069C0438007E8D4002025
:1011F00070BD616C20200143616440346070002048
:10120000A0702070E3E7000008B50B48C26A802197
:101210000A43C262C26A0A400092C16A01221143B3
:10122000C162C16A11400091C26A02210A43C262CE
:10123000C06A0840009008BD0010024010B5154873
:1012400013490160144941600021816001614161DD
:1012500081610122C161C2600162FFF75FF900286C
:1012600001D0FFF710F800210A48FFF7FFF8002827
:1012700001D0FFF708F800210648FFF71CF9002805
:1012800001D0FFF700F801200003FFF739F910BD86
:10129000005400409407002013041000FEE770473C
:1012A000704710B5FFF74CFA10BD000010B59CB0A8
:1012B00038216846FEF77DFF142117A8FEF779FF55
:1012C00024210EA8FEF775FF1B4801680322D202F5
:1012D0009143C214891801600220009001210A90F4
:1012E000039140040C900001102100240D900B94F8
:1012F00004916846FFF748FC002801D072B6FEE76B
:101300000F2017900320189019941A9401211B9410
:1013100017A8FFF72FFB002801D072B6FEE70820C0
:101320000E9014940EA8FFF759FA002801D072B657
:10133000FEE71CB010BD0000007000407047F8B51B
:10134000040C8BB2264682B25E430D0C1046370C5D
:101350005843360480190021794116466E43370CF4
:1013600036048019794126466E438919F8BD00007C
:101370008307FF22DB0E9A408907090E9940002857
:1013800008DB830809489B001B1818689043084332
:10139000186070470007000F0838830804489B0056
:1013A0001B18D86990430843D861704700E400E0F7
:1013B00000ED00E002E008C8121F08C1002AFAD1BF
:1013C00070477047002001E001C1121F002AFBD1C5
:1013D0007047000010B5002823D0124B0022001FD8
:1013E000196803E0814203D80A4649680029F9D107
:1013F000002A0AD01368841A9C4204D10068181885
:101400001060104602E0506000E01860002907D02C
:1014100002680B1A934203D10B68D2180260496824
:10142000416010BD8C03002008B5FFF791F9FFF76C
:101430003DFFFFF7E9FEFFF701FF00F06BF808241E
:1014400000212D23074A0846009400F045F8412367
:10145000054A00212E20009400F03EF800F08EF89E
:10146000FEE70000000000206E010020F0B50B3008
:10147000C108C900144F0026144A0FE003688B42CC
:101480000BD38B4205D95C1A4318456830C3083B1F
:1014900000E04368136002C004E0021D10680028E9
:1014A000ECD13046002803D13868002801D0002054
:1014B000F0BD064A06481060064A121AD208D20049
:1014C00044C001203860D7E7900300208C0300203F
:1014D000E4070020E0090020FFB5864609980024B3
:1014E0000B4D7344461810E0C8017246844608E06C
:1014F0000298075D60468018641C521C2F54A4B2E9
:10150000D2B29342F4D8491CC9B28E42ECD8FFBD86
:101510009403002030B587B06420FEF7B7FE1C228C
:101520000EA16846FEF72CFE00246D46295D0020C2
:1015300000F042F8002800D0FEE7641CE4B21C2C46
:10154000F4D300200C490122034692020B54401CA4
:1015500080B29042FAD307B030BD0000AE2010B088
:10156000C800104081FFA1A6A83FA4D300D5F0D9A0
:1015700022DA12DB208D14AF9403002070B50D4DDC
:1015800000242046B030C1B2002000F015F8002140
:10159000084600F011F81021002000F00DF8E001DD
:1015A00041198022402000F017F8641CE4B2082C96
:1015B000E7D370BD940300201CB56A4610715171C9
:1015C0000A200090022301AA78210248FFF700F8C0
:1015D0001CBD000094070020F8B5074614460E46CF
:1015E000501CFFF743FF05460770002004E0315C04
:1015F0002A18401C5170C0B2A042F8D37D20C00010
:101600000090631C2A4678210348FEF7E1FF284634
:10161000FFF7E0FEF8BD0000940700200000000086
:10162000000000000102030406070809030406087D
:101630000C10182030000000581600080000002090
:101640009403000030020008C01700089403002033
:101650004C0A0000C41300081422012DE2406780E8
:10166000402020C0801BC0600C011C1B077C2A4A44
:101670003F235AFF040113300AC0603018080404E5
:1016800002034A0101390A580802020408102040E6
:101690006E412BE01C242F1010101818080151392E
:1016A0000A690F84010EF09C031C603B0113C58086
:1016B000C03807900C0102040C887810901020208C
:1016C000190E2F7888080406039349363901416DB5
:1016D000FC07F01F0C591B2B0EF0F4191319F59988
:1016E0007D59D649D7D9019114220141025A408B24
:1016F00040C0ABBEE0FEFE3C08D101251D0307073C
:1017000007303810E0781E0F0F0C0C040406060694
:101710000202030199C8611F041CFCF808040117A8
:1017200006E7FFFE3E0C5701030F1E3E1C12011C74
:101730001CFCFC3F3E04C4868282410D11FFFFFE6B
:101740001E6F700BFFF0C0404060607F7F0314C0CD
:101750006008180B4040C0E0E0F8FF7F6020011DEA
:101760002123232307C00E30FFFFFF3030303838ED
:10177000383030207996480880C0C0F0F87C0F4996
:101780004D80F0FC3F1A1F02061E9C9C80D30D1C4E
:10179000FFFF8080FC6C1F3F1F4E3C0F0F07F319AB
:1017A000012B8181061808C1F1FF7F070101150394
:1017B0003107061D03070F1F51F1296C920489D5CB
:04000005080000C12E
:00000001FF
