:020000040800F2
:1000000080040020D90000084116000835130008BC
:1000100000000000000000000000000000000000E0
:10002000000000000000000000000000A51600080D
:10003000000000000000000043160008A71600089A
:10004000EB000008EB000008EB000008EB000008E4
:10005000EB000008EB000008EB000008EB000008D4
:10006000EB000008EB000008EB000008EB000008C4
:10007000EB000008EB00000800000000EB000008A7
:1000800000000000EB00000800000000000000007D
:10009000EB00000800000000EB000008EB00000887
:1000A000EB000008EB000008EB000008EB00000884
:1000B000EB000008EB000008EB000008EB00000874
:1000C0000448854600F096F800480047B51C000833
:1000D000C046C046800400200448804704480047CA
:1000E000FEE7FEE7FEE7FEE7FEE7FEE75D17000836
:1000F000C100000830B50B46014600202022012433
:1001000009E00D46D5409D4205D31D469540491B4B
:100110002546954040191546521E002DF1DC30BD94
:10012000F0B51FB40646002082B005464024019178
:1001300000901BE0019922460F46304600F049F836
:10014000049A059B801A994110D3104619462246FD
:1001500000F02FF8361A8F41019722460120002126
:10016000009F00F026F838184D4100902046641E8C
:100170000028DFDC019B00982946324607B0F0BD1D
:10018000D2B201E00270401C491EFBD2704700222F
:10019000F6E710B513460A4604461946FFF7F0FF86
:1001A000204610BD421C0178401C0029FBD1801A5A
:1001B000704710B5202A04DB0146203A9140002008
:1001C00010BD914020239C1A0346E3401943904000
:1001D00010BD10B5202A04DB0846203AD04000218B
:1001E00010BD0B46D340D0402024A21A91400843B2
:1001F000194610BD064C0125064E05E0E36807CC04
:100200002B430C3C98471034B442F7D3FFF75CFF04
:10021000881D0008A81D000872B6FEE770B50446E8
:1002200000F0ECF80546601C02D004480078241861
:1002300000F0E4F8401BA042FAD370BD000000209B
:10024000F8B5002303240125BDE032462E469E402A
:10025000B446324079D00E79B607B60F012E01D0E0
:10026000022E17D186682746B6465E00B740009634
:100270007646BE43B646CF68009EB74076463743C3
:10028000876046686746BE430F79FF06FF0F9F40B1
:10029000374347600E79F643B6070ED0C668274647
:1002A000B4465E00B646B7406646BE43B4468F6865
:1002B0007646B74066463743C7600E79B607B60F35
:1002C000022E14D1DE08B60036180096366A5F0793
:1002D000B446FE0E0F27B646B7406646BE43B44648
:1002E0000F697646B74066463743009E3762066818
:1002F0002746B4465E00B646B7406646BE430F7911
:10030000B446BF07BF0F7646B7406646374307601F
:100310004E68B603B60F55D02E4F7E6B2E437E63CC
:100320009F082D4EBF00BE190096B6680F27B44631
:100330009E07360FB646B7406646BE4305273F07C1
:10034000B446B84202D1002715E03BE0234FB84243
:1003500001D101270FE0224FB84201D102270AE064
:10036000204FB84201D1032705E01F4FB84201D109
:10037000052700E006277646B74066463743009ECD
:10038000B7601A4E36684F689643FF0300D5164390
:10039000164F3E607E684F689643BF0300D51643F4
:1003A000124F7E60BE684F689643FF0200D5164329
:1003B0000E4FBE60FE684F689643BF0200D51643DD
:1003C0000A4AD6605B1C0A681646DA4000D03CE751
:1003D000F8BD000000100240000001400004005081
:1003E00000080050000C0050001C005000040140A8
:1003F000002A01D08161704781627047014880689E
:10040000704700000000002070B50246403253786B
:10041000202B1CD11378012B19D001231370242415
:100420005470046825689D432560046825681E0390
:10043000B5432560046825680D43256000680168A0
:1004400019430160202050700020107070BD022000
:1004500070BD70B5024640325378202B1BD1137803
:10046000012B18D0012414702423537003681D68D5
:10047000A5431D6005682B680F263602B3430902A9
:1004800019432960006801682143016020205070F1
:100490000020107070BD022070BD000070B5040017
:1004A00006D02546403568780026002802D005E0B1
:1004B000012070BD2E70204600F0D2F82420687014
:1004C000206801684908490001600F216068090639
:1004D00088432168086121688A680120C00382433B
:1004E0008A60E1680129A16808D0212292021143A3
:1004F00022689160E168022902D005E00143F7E734
:1005000001212268C902516021684A680F4B1A43D1
:100510004A602168CA688243CA60616920690843E9
:10052000A169090208432168C860216AE06908439B
:100530002168086020680168012211430160666437
:10054000202068702663AE70002070BD008000021D
:10055000FFB5054604464035687881B0202878D13B
:100560002878012875D001202870FFF747FF07463B
:10057000012200901923D103204600F045FF0028F6
:100580003CD1212068701020A87000266664039872
:100590006062049860856663618D2F48FF2903D9E6
:1005A000FF22228500903BE0618D218500903DE097
:1005B0002046029900F014FF16E000F072FF0028B8
:1005C0001CD1606A216800788862606A401C6062A1
:1005D000608D401E6085208D401E80B22085618D1B
:1005E000002901D000280CD0608D0A9900283A46D5
:1005F0002046E2D100F02FFF00281CD0012005B0DA
:10060000F0BD00970022802120460A9B00F0FCFEEE
:100610000028F3D1608DFF2805D9FF22228500969E
:1006200001231B06C4E7608D20850096208D0123E1
:10063000C2B25B06BCE721682020C86121684A6815
:10064000064B1A404A606870AE702E700020D6E7E4
:10065000FFE70220D3E700000020008000E800FE52
:1006600010B586B0044614216846FFF790FD114985
:10067000206888421BD1104CE16A02200143E162EC
:10068000E16A0140032005910002009012200190D0
:10069000012002900320039004200490694607483B
:1006A000FFF7CEFDA06B012149050843A06306B00A
:1006B00010BD000000540040001002400004005033
:1006C0000248816802788918816070470000002024
:1006D00010B50848002401684022114301602046FB
:1006E00000F00AF8002801D0012401E000F026F80B
:1006F000204610BD0020024070B504460D4D7D20FF
:100700002978C000FFF7F6FC01460B480068FFF7A8
:10071000F1FC00F0F7FD002809D1042C07D20022DB
:100720002146401E00F016F800206C6070BD0120CC
:1007300070BD0000000000200C0000200448416B48
:10074000012211434163816B0204114381637047AD
:100750000010024010B501F02FF810BD02480168EA
:10076000821511430160704700700040F8B50446DF
:1007700000680027604D810601D400057ED55E4EDD
:10078000403EB06BC00004D4B06B31040843B0638A
:1007900001275A480168C90511D40168821511431F
:1007A0000160FFF72BFE009005E0FFF727FE0099A0
:1007B000401A642844D851480068C005F5D531680E
:1007C00003200005626801401040884205D10323E0
:1007D000A0681B051840884208D09003800F0328AA
:1007E00004D13068800301D50120F8BD28690321B8
:1007F0000904084029D00A40824202D02278920699
:1008000006D4A2680A4082421FD0208800051CD569
:1008100028692A6988430121C9040A432A612A698F
:100820008A432A612861C0050FD5FFF7E7FD0090D4
:1008300008E0FFF7E3FD0099411A3148814201D9F0
:100840000320F8BD28698005F3D561688803800F0F
:10085000032805D132680005824301400A43326013
:100860002869032261681204114008432861002F9F
:1008700006D0B16B01200007814300E000E0B163C6
:100880002078C00705D0E868E16880088000084348
:10089000E8602078800705D5E8680C218843216945
:1008A0000843E8602078400706D5E86803218902FC
:1008B000884361690843E8602078000706D5E86846
:1008C000032109038843A1690843E86020784006B2
:1008D00006D5E868012189068843216A0843E86053
:1008E0002078000606D5E868032189048843E16979
:1008F0000843E8600020F8BD40100240007000404E
:1009000088130000F8B50E46050038D05E48006830
:10091000C007C00FB04214D25B4C206840084000B2
:1009200030432060FFF76AFD074605E0FFF766FDEC
:10093000C11B564881427AD82068C007C00FB04218
:10094000F4D12878524C800705D5E068F02188431F
:10095000A9680843E0602878C00752D06868022878
:1009600006D0032807D0216801280AD0890504E0B1
:100970002168890301E021688901002903DB012046
:10098000F8BD4907F9E7E168890889000143E1609A
:10099000FFF734FD0746686802280AD0032814D000
:1009A00001281ED029E0FFF729FDC11B37488142ED
:1009B0003DD8E0680007800F0228F4D121E0FFF75E
:1009C0001DFDC11B3148814231D8E0680007800F0E
:1009D0000328F4D115E0FFF711FDC11B2B4881421C
:1009E00025D8E0680007800F0128F4D109E0FFF75F
:1009F00005FDC11B2548814219D8E0680007800F1A
:100A0000F5D121480168C907C90FB14217D901685A
:100A10004908490031430160FFF7F0FC074608E050
:100A200005E0FFF7EBFCC11B1848814201D9032008
:100A3000F8BD15480068C007C00FB042F1D1287852
:100A4000400706D5E068072109028843E9680843A2
:100A5000E0602878000707D5E0680721C9028843CD
:100A60002969C9000843E06000F01AF8E168094A02
:100A70000906090F515CC84007490860074800682B
:100A8000FFF73AFEF8BD0000002002408813000086
:100A9000001002406C1D00080C0000200400002023
:100AA00070B51A4AD3681A490C2018408D000428E2
:100AB0000CD04E00082810D00C2810D0506800042C
:100AC000410F0120C003491C884070BD1068C0065A
:100AD00001D5084670BD284670BD304670BD9802ED
:100AE0000C4C000F205C1B029C0FD368641CDB03C2
:100AF00001D5314603E01268D20600D4294600F041
:100B000043FE22460023FFF70BFB70BD001002409E
:100B100000093D007C1D0008FEB505007ED0FE4C9E
:100B2000E7680C20E66807400120000406402878AA
:100B3000C00747D0082F05D00C2F0AD10120000490
:100B4000864206D1206880033CD568680028E5D03D
:100B500038E0012069680004814203D12168014323
:100B6000216011E0052301221B04920499422168AF
:100B700002D111432160F1E78143216021680140E6
:100B80000091206890432060686800280DD0FFF72E
:100B900035FC009005E0FFF731FC0099401A64280D
:100BA0007BD820688003F6D50CE0FFF727FC009087
:100BB00005E0FFF723FC0099401A6428F0D820686C
:100BC0008003F6D42878800756D50923E868042FD7
:100BD0000DD00C2F01D1002E09D000283CD0216867
:100BE000994301432160FFF709FC064628E021688C
:100BF000490701D5002891D061681F221202914354
:100C00002A691202114361602168994301432160FE
:100C1000FFF746FFE16809060A0F00E0BFE1BF49A0
:100C2000895CC840BE490860BE480068FFF764FDA3
:100C3000002873D120E0FFF7E1FB801B0228AFD82A
:100C400020684007F7D560681F2109028843296999
:100C50000902084360600FE02068400840002060FF
:100C6000FFF7CCFB064604E0FFF7C8FB801B022819
:100C700096D820684007F7D42878C00660D5002FA2
:100C80000CD0E86900284AD02068FF2101310843D0
:100C90002060FFF7B3FB06462EE0E5E02068800504
:100CA00002D5E8690028A6D0606807214903884377
:100CB000696A084360606068298C0002000A0906BE
:100CC00008436060686A410B0120C003491C8840EA
:100CD000E16809060A0F9149895CC840904908609B
:100CE00090480068FFF708FD002817D128E0FFF7BB
:100CF00085FB801B0228A2D820688005F7D5606894
:100D0000072149038843696A084360606068298C49
:100D10000002000A09060843606011E025E121682D
:100D2000FF20013081432160FFF768FB064604E0A5
:100D3000FFF764FB801B02289AD820688005F7D44F
:100D40002878794E000724D568690028306910D0CA
:100D5000012108433061FFF751FB009005E0FFF7E8
:100D60004DFB0099401A02287ED830698007F6D5DD
:100D70000FE0400840003061FFF740FB009005E0C5
:100D8000FFF73CFB0099401A02286DD830698007B4
:100D9000F6D42878400764D500200290A06BC000EC
:100DA00006D4A06B012109070843A063012002902B
:100DB0005E480168C90511D40168821511430160BC
:100DC000FFF71CFB009005E0FFF718FB0099401AA5
:100DD000642849D855480068C005F5D5FF20AA68A1
:100DE0000130824203D131690143316111E00121B7
:100DF0008902002A07D005231B029A4203D13269D7
:100E00000A433261EFE732698243326130698843D5
:100E10003061A86800280ED0FFF7F0FA009006E0D5
:100E2000FFF7ECFA0099411A414881421CD8306919
:100E30008005F5D50DE0FFF7E1FA009006E0FFF739
:100E4000DDFA0099411A3A4881420DD8306980058F
:100E5000F5D40298002804D0A16B0120000781433B
:100E6000A1632878800600E07EE02ED53148A9698C
:100E70004314002916D0A26801210A43A260626BC4
:100E80000A436263016A19430162FFF7B7FA064633
:100E900004E0FFF7B3FA801B022865D8A06880073A
:100EA000F7D512E0A16849084900A160016A994399
:100EB0000162FFF7A3FA064604E0FFF79FFA801BE2
:100EC000022851D8A0688007F7D4A86A002868D003
:100ED0000C2F4FD0012636060228206805D0B043DB
:100EE0002060FFF78BFA054640E0B0432060FFF733
:100EF00085FA074604E0FFF781FAC01B022833D8C1
:100F000020688001F7D4296BE86AE2680843696BBE
:100F1000FD231B049A430FE0001002406C1D0008E3
:100F20000C0000200400002040100240007000402F
:100F3000881300000000014011430843E06020686E
:100F400030432060FFF75AFA054604E0FFF756FAEF
:100F5000401B022808D820688001F7D521E0FFF760
:100F60004DFA401B022801D90320FEBD20688001F4
:100F7000F5D416E00128F8D0E06801210904EA6AF6
:100F8000014091420BD10F2189042A6B014091420B
:100F900005D1032189050840696B884201D00120F1
:100FA000FEBD0020FEBD10B500680B464068C021A4
:100FB000C94301400002000ECC04D870E40E5C70FE
:100FC0008C06A40E0904490F9C701970002A0AD1DE
:100FD00000F038FBD870587800F034FB58709878DF
:100FE00000F030FB9870002010BD000030B50B46BB
:100FF0000168896A5960016809694904490C996066
:10100000006804680F482146014088024D04800EA4
:1010100018706D0E49065D70490E99706102490E97
:1010200040242140D970002A0AD100F00BFB18702F
:10103000587800F007FB5870987800F003FB987020
:10104000002030BD7F7F7F00F8B5040050D02546DA
:1010500020356878002803D12870204600F052F827
:10106000022068702168CA204862216853204862C3
:10107000204600F0FBFAFF2604270028206802D053
:1010800046626F7034E081681D4A114081602168BA
:1010900088686268A369104322691A431043886014
:1010A0002168E068086120680169228912041143FF
:1010B00001612068C16880229143C1602068C16CD1
:1010C00089088900C164E169606901432068C26CD4
:1010D0001143C1642068806880060BD4204600F06C
:1010E000F7F8002806D0206846626F70002028704C
:1010F0000120F8BD20684662012068700020F8BD1C
:10110000BFFF8FFF00680549884205D10448016987
:101110000122920411430161704700000028004041
:1011200040100240F8B505460446203528780B46A5
:1011300001280FD00120287002206870002A0BD0EF
:10114000D8789E780004064358780978000249034D
:10115000084317E00220F8BD5878C10603D5EF21F7
:1011600008400A305870D87800F074FA06045878AD
:1011700000F070FA00020643987800F06BFA06431C
:101180001878400306432168CA204862216853202A
:101190004862204600F06AFA0027002811D1114861
:1011A0000640206846602068C16880229143C16083
:1011B0002068806880060CD4204600F089F800285A
:1011C00007D02168FF204862042068702F7001203A
:1011D000F8BD2168FF204862012068702F70002050
:1011E000F8BD00003FFFFF00F8B506460446203674
:1011F00030780D46012822D0012030700220707016
:10120000206800278068002A1BD0400600D4EF70B9
:101210002978A878090408436978EA780902120451
:101220001143084300902168CA2048622168532076
:101230004862204600F01AFA002837D116E0022052
:10124000F8BD400600D4EF70287800F003FA0304DC
:10125000687800F0FFF900020343A87800F0FAF97B
:101260000343E878000403430093DCE71749009840
:101270000840216808602068816801229204914337
:1012800081602969E868084321688A68104388609A
:101290002068C16880229143C16020688068800610
:1012A0000CD4204600F014F8002807D02168FF2055
:1012B00048620420707037700120F8BD2168FF205B
:1012C00048620120707037700020F8BD7F7F7F007A
:1012D00070B504460068C168A0229143C160FFF761
:1012E0008DF87D260546F60006E0FFF787F8401BDF
:1012F000B04201D9032070BD2068C0688006F4D5D3
:10130000002070BD094910B5401E884201D9012056
:1013100010BD074C60610321081F00F04DFA00204A
:10132000A06107202061002010BD0000FFFFFF002A
:1013300000E000E0FEE701688A69D243920701D429
:1013400000228A6200688169C943C90703D08169A4
:101350000122114381617047F7B5044600680F46CA
:101360008169C943C90636D44168890104D44168FA
:101370000122920311434160002625464035206832
:101380008069C043800612D5781CF8D0FFF736F884
:101390000299401AB84201D8002FF0D1616C202088
:1013A000014361646870AE702E700120FEBD21683B
:1013B0001020C86120682027C7612046FFF7BBFFC7
:1013C00020684168054A11404160606C042108436F
:1013D00060646F70E7E70020FEBD000000E800FEDB
:1013E000F0B50668059C7568064F600D3843854367
:1013F0008805800D11040843184320430543756098
:10140000F0BD0000FF63FF03F8B51D4617460E460A
:10141000044609E0681C07D0FEF7F0FF0699401A61
:10142000A8420BD8002D09D0206881693046884336
:101430000FD00020B842EDD00020F8BD616C202014
:1014400001436164403460700020A070207001206E
:10145000F8BD0120EEE770B516460D4604460FE0D4
:10146000324629462046FFF777FF002801D00120A9
:1014700070BDFEF7C3FF801BA84208D8002D06D020
:1014800020688069C0438006EAD4002070BD616C8A
:10149000202001436164403460700020A0702070FF
:1014A000E5E770B516460D46044611E0324629467A
:1014B0002046FFF751FF002801D0012070BD681CB5
:1014C00006D0FEF79BFF801BA84208D8002D06D04F
:1014D00020688069C0438007E8D4002070BD616C3B
:1014E000202001436164403460700020A0702070AF
:1014F000E3E7000030B587B014216846FEF747FEE9
:101500001748C26A04210A43C262C26A0A400592AD
:10151000C26A80210A43C262C26A0A400592C16A55
:1015200001242143C162C16A21400591C26A02219E
:101530000A43C262C06A052508402D0705900022B3
:1015400020212846FEF754FF00212020029103911C
:101550000090019469462846FEF772FE07B030BD40
:101560000010024010B51348114901601249416052
:10157000002181600161416181610122C161C2601C
:101580000162FEF78BFF002801D0FEF745FE002127
:101590000848FEF739FF002801D0FEF73DFE002184
:1015A0000448FEF756FF002801D0FEF735FE10BDB7
:1015B0000054004010000020BB7C700030B587B0A4
:1015C00014216846FEF7E3FD00241B491B480594DF
:1015D00012C07F2101608460C4600461FF21446106
:1015E00041600838FFF730FD002801D0FEF714FEF7
:1015F000182168460170417003258570039401220B
:1016000069460E480494FFF7EFFD002801D0FEF76D
:1016100003FE684605750521417519218175212153
:10162000C175012205A90548FFF77CFD002801D0FE
:10163000FEF7F2FD07B030BD002800405C0000203E
:10164000FEE7704701090A2200075143000F4018C6
:10165000C0B270470022014602E00A39C9B2521CEA
:101660000A29FAD21007000E0843704770B50446E5
:101670000068C168490613D40021C943C160FEF760
:10168000BDFE7D260546F60006E0FEF7B7FE401BD0
:10169000B04201D9032070BD2068C0684006F4D56F
:1016A000002070BD704710B5FFF70AF810BD0000AC
:1016B00010B59CB038216846FEF769FD142117A8C3
:1016C000FEF765FD24210EA8FEF761FD21480168A3
:1016D0000324E402A143C21489180160FFF73EF815
:1016E0001D480169A143016106200090FF200130DF
:1016F0000290012003901020049002200A904004E0
:101700000C90000100240D900B946846FFF704FA3A
:10171000002801D072B6FEE70F2017900320189022
:1017200019941A9401211B9417A8FFF7EBF80028CD
:1017300001D072B6FEE728200E9001201494000418
:101740000F900EA8FFF712F8002801D072B6FEE73E
:101750001CB010BD007000404010024070470000F7
:101760000FB410B504A9074B02AA039800F056F86D
:10177000044602A9002000F0F9F9204610BC08BC7C
:1017800004B018476D1B0008F8B5040C8BB2264650
:1017900082B25E430D0C1046370C58433604801954
:1017A0000021794116466E43370C36048019794181
:1017B00026466E438919F8BD8307FF22DB0E9A4047
:1017C0008907090E9940002808DB830809489B0017
:1017D0001B18186890430843186070470007000FF3
:1017E0000838830804489B001B18D86990430843B5
:1017F000D861704700E400E000ED00E002E008C8B6
:10180000121F08C1002AFAD170477047002001E07A
:1018100001C1121F002AFBD170470000FFB58FB035
:101820000546002606E025280AD0129A119990470D
:101830006D1C761C28780028F5D1304613B0F0BD19
:10184000002402940121B54A009400E004436D1C79
:101850002B780846203B98401042F7D128782A2858
:101860000ED00222287801463039092916D802996B
:101870000A2359433039401814436D1C0290F1E794
:10188000109802C802911090002904DA0120400348
:10189000044348420290022004436D1C28782E28FD
:1018A00017D10420044368786D1C2A280CD11098A5
:1018B0006D1C02C8009110900BE000990A22514360
:1018C000303940186D1C00902878014630390929BC
:1018D000F3D928786C2810D006DC4C281AD0682858
:1018E0000ED06A2817D104E0742813D07A2812D1B8
:1018F00010E00120400504430CE00121090501E04E
:10190000032109050C436978814203D101200005B8
:1019100024186D1C6D1C2878692874D006DC0028FA
:101920008BD0632827D0642806D16CE06E2808D0BD
:1019300073282CD0752878D0129A11999047761C6C
:101940005FE06002400F022809D003280DD0042870
:10195000109801680DD00E60001D109051E0109895
:10196000F21701680E604A60F6E7109801680E8071
:10197000F2E70E70F0E710986A4601781173001DC7
:1019800010900020507303A80190012005E01098EA
:1019900002C8019110900020C04361070CD50027B8
:1019A00000E07F1C00998F420FDA8742F9DB019932
:1019B000C95D0029F5D108E0002700E07F1C8742BF
:1019C000FCDB0199C95D0029F8D102982146C01BB2
:1019D0000290129B119A00F0B3F88019C61907E023
:1019E000019801990078491C0191129A1199904728
:1019F0007F1EF5D22146129B119A029800F090F8B2
:101A000086196D1C16E70A200190109901C91091E2
:101A10006102490F032900D100B2042900D140B26C
:101A2000002803DA40422D2103E00DE0210504D512
:101A30002B216A461173012103E0E10711D0202117
:101A4000F7E70CAF0C9114E00A200190109901C93E
:101A500010916102490F032900D180B2042900D1FD
:101A6000C0B20021EDE70199FEF744FB30317F1E43
:101A700039700028F7D104A8C01B203001906007FE
:101A800004D5012000048443009801E00120009067
:101A90000199884201DD401A00E0002041180090C1
:101AA0000C9809180298401A0290E00306D42146C7
:101AB000129B119A029800F043F8861900200D90AD
:101AC00008E003A9085C129A119990470D98401CF0
:101AD000761C0D900C998842F3DBE0030CD521466F
:101AE000129B119A029800F02BF8861904E0129AC2
:101AF000302011999047761C0099481E00900029CB
:101B0000F5DC05E03878129A7F1C11999047761C15
:101B10000199481E01900029F4DC6BE709280100B7
:101B2000F8B5044600251E461746880404D405E08F
:101B300039462020B0476D1C641EF9D52846F8BDF3
:101B4000FFB50446002581B01E46C80301D53027E5
:101B500000E02027880404D505E038460399B04703
:101B60006D1C641EF9D5284605B0F0BD0A68531CEB
:101B70000B601070704710B53220FEF74FFB30201D
:101B800000F042F80520FEF749FB302000F03CF859
:101B90000120FEF743FB302000F036F80A20FEF764
:101BA0003DFB202000F030F80A20FEF737FB28200C
:101BB00000F02AF80120FEF731FB082000F024F89D
:101BC0000120FEF72BFB012000F01EF80120FEF79C
:101BD00025FB062000F018F80120FEF71FFB0C2063
:101BE00000F012F80120FEF719FB10BD70B50D468C
:101BF0000646002404E0305D00F02CF8641CE4B2DA
:101C0000AC42F8D370BD00001CB5010909010B46B8
:101C10000C336A46137108315171000101460C31D1
:101C200091710830D07164200090042301AA4E21E4
:101C30000648FEF78DFC0100054801D0012200E0B6
:101C400000222021FEF7D4FB1CBD00001000002064
:101C5000000000501CB5010909010B460D336A460E
:101C6000137109315171000101460D319171093033
:101C7000D07164200090042301AA4E210648FEF78B
:101C800067FC0100054801D0012200E0002220216C
:101C9000FEF7AEFB1CBD000010000020000000504D
:101CA000282251430818802110B50843C0B2FFF71D
:101CB000ABFF10BD8CB0FEF70BFDFFF7F9FCFFF793
:101CC00019FCFFF77BFCFFF74DFCFFF754FF7D2469
:101CD00024016510002207A91B48FFF764F9694633
:101CE000087FC97F01900919009169468B7F4A7F5F
:101CF00016A108A8FFF734FD00210846FFF7D0FF22
:101D000008A8FEF74FFAC1B208A8FFF76FFF00223C
:101D100002A90D48FFF76AF96946887A00904B7A64
:101D20000A7A0EA108A8FFF71BFD01210020FFF78A
:101D3000B7FF08A8FEF736FAC1B208A8FFF756FFAA
:101D40002846FEF76BFAC5E75C00002025303264B8
:101D50002F253032642F256420256400253032641D
:101D60003A253032643A2530326400000000000029
:101D70000000000001020304060708090304060826
:101D80000C10182030000000A81D000800000020E2
:101D900010000000FC170008B81D0008100000200B
:101DA000700400000C18000801000000040000008E
:081DB00000000000000020000B
:04000005080000C12E
:00000001FF
