:020000040800F2
:1000000098040020D90000082D0F0008CB0E00082E
:1000100000000000000000000000000000000000E0
:10002000000000000000000000000000310F000888
:1000300000000000000000002F0F0008330F000830
:10004000EB000008EB000008EB000008EB000008E4
:10005000EB000008EB000008EB000008EB000008D4
:10006000EB000008EB000008EB000008EB000008C4
:10007000EB000008EB00000800000000EB000008A7
:1000800000000000EB00000800000000000000007D
:10009000EB00000800000000EB000008EB00000887
:1000A000EB000008EB000008EB000008EB00000884
:1000B000EB000008EB000008EB000008EB00000874
:1000C0000448854600F090F800480047C91400082D
:1000D000C046C046980400200448804704480047B2
:1000E000FEE7FEE7FEE7FEE7FEE7FEE7C90F0008D2
:1000F000C100000830B50B46014600202022012433
:1001000009E00D46D5409D4205D31D469540491B4B
:100110002546954040191546521E002DF1DC30BD94
:10012000F0B51FB40646002082B005464024019178
:1001300000901BE0019922460F46304600F042F83D
:10014000049A059B801A994110D3104619462246FD
:1001500000F028F8361A8F4101972246012000212D
:10016000009F00F01FF838184D4100902046641E93
:100170000028DFDC019B00982946324607B0F0BD1D
:10018000D2B201E00270401C491EFBD2704700222F
:10019000F6E710B513460A4604461946FFF7F0FF86
:1001A000204610BD10B5202A04DB0146203A9140BC
:1001B000002010BD914020239C1A0346E3401943C0
:1001C000904010BD10B5202A04DB0846203AD040EC
:1001D000002110BD0B46D340D0402024A21A9140EC
:1001E0000843194610BD0000064C0125064E05E0E7
:1001F000E36807CC2B430C3C98471034B442F7D348
:10020000FFF762FF201500084015000872B6FEE7F0
:1002100070B5044600F0E6F80546601C02D00448BC
:100220000078241800F0DEF8401BA042FAD370BD1D
:1002300000000020F8B5002303240125BDE032466C
:100240002E469E40B446324079D00E79B607B60F9E
:10025000012E01D0022E17D186682746B6465E00D1
:10026000B74000967646BE43B646CF68009EB7407C
:1002700076463743876046686746BE430F79FF0678
:10028000FF0F9F40374347600E79F643B6070ED005
:10029000C6682746B4465E00B646B7406646BE43CB
:1002A000B4468F687646B74066463743C7600E79D6
:1002B000B607B60F022E14D1DE08B6003618009627
:1002C000366A5F07B446FE0E0F27B646B74066464D
:1002D000BE43B4460F697646B74066463743009E34
:1002E000376206682746B4465E00B646B7406646A3
:1002F000BE430F79B446BF07BF0F7646B740664688
:10030000374307604E68B603B60F55D02E4F7E6B4D
:100310002E437E639F082D4EBF00BE190096B6681F
:100320000F27B4469E07360FB646B7406646BE4313
:1003300005273F07B446B84202D1002715E03BE04D
:10034000234FB84201D101270FE0224FB84201D11B
:1003500002270AE0204FB84201D1032705E01F4FD2
:10036000B84201D1052700E006277646B740664629
:100370003743009EB7601A4E36684F689643FF03B6
:1003800000D51643164F3E607E684F689643BF0304
:1003900000D51643124F7E60BE684F689643FF0239
:1003A00000D516430E4FBE60FE684F689643BF02ED
:1003B00000D516430A4AD6605B1C0A681646DA4026
:1003C00000D03CE7F8BD00000010024000000140F2
:1003D0000004005000080050000C0050001C0050A9
:1003E00000040140014880687047000000000020C0
:1003F00002488168027889188160704700000020F7
:1004000010B50848002401684022114301602046CD
:1004100000F00AF8002801D0012401E000F026F8DD
:10042000204610BD0020024070B504460D4D7D20D1
:100430002978C000FFF75EFE01460B480068FFF711
:1004400059FE00F05DFC002809D1042C07D20022DF
:100450002146401E00F016F800206C6070BD01209F
:1004600070BD0000000000200C0000200448416B1B
:10047000012211434163816B020411438163704780
:100480000010024010B500F0D1FF10BDF8B50446D1
:1004900000680027604D810601D400057ED55E4EC0
:1004A000403EB06BC00004D4B06B31040843B0636D
:1004B00001275A480168C90511D401688215114302
:1004C0000160FFF78FFF009005E0FFF78BFF0099B9
:1004D000401A642844D851480068C005F5D53168F1
:1004E00003200005626801401040884205D10323C3
:1004F000A0681B051840884208D09003800F03288D
:1005000004D13068800301D50120F8BD286903219A
:100510000904084029D00A40824202D0227892067B
:1005200006D4A2680A4082421FD0208800051CD54C
:1005300028692A6988430121C9040A432A612A6972
:100540008A432A612861C0050FD5FFF74BFF009051
:1005500008E0FFF747FF0099411A3148814201D96D
:100560000320F8BD28698005F3D561688803800FF2
:10057000032805D132680005824301400A433260F6
:100580002869032261681204114008432861002F82
:1005900006D0B16B01200007814300E000E0B163A9
:1005A0002078C00705D0E868E1688008800008432B
:1005B000E8602078800705D5E8680C218843216928
:1005C0000843E8602078400706D5E86803218902DF
:1005D000884361690843E8602078000706D5E86829
:1005E000032109038843A1690843E8602078400695
:1005F00006D5E868012189068843216A0843E86036
:100600002078000606D5E868032189048843E1695B
:100610000843E8600020F8BD401002400070004030
:1006200088130000F8B50E46050038D05E48006813
:10063000C007C00FB04214D25B4C20684008400095
:1006400030432060FFF7CEFE074605E0FFF7CAFE05
:10065000C11B564881427AD82068C007C00FB042FB
:10066000F4D12878524C800705D5E068F021884302
:10067000A9680843E0602878C00752D0686802285B
:1006800006D0032807D0216801280AD0890504E094
:100690002168890301E021688901002903DB012029
:1006A000F8BD4907F9E7E168890889000143E1607D
:1006B000FFF798FE0746686802280AD0032814D07E
:1006C00001281ED029E0FFF78DFEC11B374881426B
:1006D0003DD8E0680007800F0228F4D121E0FFF741
:1006E00081FEC11B3148814231D8E0680007800F8C
:1006F0000328F4D115E0FFF775FEC11B2B4881429A
:1007000025D8E0680007800F0128F4D109E0FFF741
:1007100069FEC11B2548814219D8E0680007800F97
:10072000F5D121480168C907C90FB14217D901683D
:100730004908490031430160FFF754FE074608E0CD
:1007400005E0FFF74FFEC11B1848814201D9032085
:10075000F8BD15480068C007C00FB042F1D1287835
:10076000400706D5E068072109028843E968084385
:10077000E0602878000707D5E0680721C9028843B0
:100780002969C9000843E06000F03AF8E168094AC5
:100790000906090F515CC84007490860074800680E
:1007A000FFF742FEF8BD0000002002408813000061
:1007B00000100240FC1400080C000020040000207F
:1007C000044805490068C968044A4905490F515C55
:1007D000C84070470C0000200010024015150008AA
:1007E000044805490068C968044A8904490F515CF6
:1007F000C84070470C00002000100240151500088A
:1008000070B5184AD36818490C2018408D00042888
:100810000BD008280ED00C280ED050680004410FD1
:100820000120C003491C884070BD1068C00601D477
:10083000284670BD084670BD98020C4C000F205C25
:100840001B029C0FD368641CDB0303D41268D2061E
:1008500000D4294600F0C4FD22460023FFF760FCC7
:1008600070BD00000010024000093D000C1500089A
:10087000FEB505007ED0FE4CE7680C20E668074018
:100880000120000406402878C00747D0082F05D073
:100890000C2F0AD101200004864206D12068800373
:1008A0003CD568680028E5D038E00120696800047C
:1008B000814203D121680143216011E00523012217
:1008C0001B0492049942216802D111432160F1E78F
:1008D000814321602168014000912068904320609D
:1008E000686800280DD0FFF77DFD009005E0FFF758
:1008F00079FD0099401A64287BD820688003F6D5DA
:100900000CE0FFF76FFD009005E0FFF76BFD00992D
:10091000401A6428F0D820688003F6D4287880072D
:1009200056D50923E868042F0DD00C2F01D1002ED5
:1009300009D000283CD02168994301432160FFF78A
:1009400051FD064628E02168490701D5002891D0CD
:1009500061681F22120291432A69120211436160E9
:100960002168994301432160FFF74AFFE1680906C6
:100970000A0F00E0BFE1BF49895CC840BE4908607A
:10098000BE480068FFF750FD002873D120E0FFF754
:1009900029FD801B0228AFD820684007F7D5606882
:1009A0001F210902884329690902084360600FE09A
:1009B0002068400840002060FFF714FD064604E070
:1009C000FFF710FD801B022896D820684007F7D457
:1009D0002878C00660D5002F0CD0E86900284AD0DE
:1009E0002068FF21013108432060FFF7FBFC064629
:1009F0002EE0E5E02068800502D5E8690028A6D051
:100A00006068072149038843696A08436060606839
:100A1000298C0002000A090608436060686A410BDD
:100A20000120C003491C8840E16809060A0F91496A
:100A3000895CC8409049086090480068FFF7F4FC62
:100A4000002817D128E0FFF7CDFC801B0228A2D890
:100A500020688005F7D56068072149038843696AE3
:100A6000084360606068298C0002000A0906084398
:100A7000606011E025E12168FF20013081432160A1
:100A8000FFF7B0FC064604E0FFF7ACFC801B022831
:100A90009AD820688005F7D42878794E000724D5A5
:100AA00068690028306910D0012108433061FFF7E0
:100AB00099FC009005E0FFF795FC0099401A022888
:100AC0007ED830698007F6D50FE0400840003061DD
:100AD000FFF788FC009005E0FFF784FC0099401ABE
:100AE00002286DD830698007F6D42878400764D58D
:100AF00000200290A06BC00006D4A06B0121090762
:100B00000843A063012002905E480168C90511D422
:100B10000168821511430160FFF764FC009005E055
:100B2000FFF760FC0099401A642849D855480068CE
:100B3000C005F5D5FF20AA680130824203D1316992
:100B40000143316111E001218902002A07D0052308
:100B50001B029A4203D132690A433261EFE73269DC
:100B600082433261306988433061A86800280ED022
:100B7000FFF738FC009006E0FFF734FC0099411ABB
:100B8000414881421CD830698005F5D50DE0FFF75A
:100B900029FC009006E0FFF725FC0099411A3A482D
:100BA00081420DD830698005F5D40298002804D020
:100BB000A16B012000078143A1632878800600E033
:100BC0007EE02ED53148A9694314002916D0A268C9
:100BD00001210A43A260626B0A436263016A1943FE
:100BE0000162FFF7FFFB064604E0FFF7FBFB801BFB
:100BF000022865D8A0688007F7D512E0A1684908E7
:100C00004900A160016A99430162FFF7EBFB0646C8
:100C100004E0FFF7E7FB801B022851D8A06880079B
:100C2000F7D4A86A002868D00C2F4FD001263606CA
:100C30000228206805D0B0432060FFF7D3FB0546AB
:100C400040E0B0432060FFF7CDFB074604E0FFF72C
:100C5000C9FBC01B022833D820688001F7D4296B58
:100C6000E86AE2680843696BFD231B049A430FE0BE
:100C700000100240FC1400080C00002004000020BA
:100C80004010024000700040881300000000014046
:100C900011430843E060206830432060FFF7A2FB67
:100CA000054604E0FFF79EFB401B022808D8206899
:100CB0008001F7D521E0FFF795FB401B022801D901
:100CC0000320FEBD20688001F5D416E00128F8D08D
:100CD000E06801210904EA6A014091420BD10F2129
:100CE00089042A6B0140914205D1032189050840FE
:100CF000696B884201D00120FEBD0020FEBD0000CE
:100D0000094910B5401E884201D9012010BD074C89
:100D100060610321081F00F089FB0020A06107200B
:100D20002061002010BD0000FFFFFF0000E000E098
:100D300010B5040003D0A06F002802D007E0012006
:100D400010BD002174200155204600F027F8242012
:100D5000A06720680168490849000160204600F04A
:100D6000CBF90128ECD0606A002802D0204600F0C0
:100D70002CF9206841680922D20291434160206821
:100D800081682A2291438160206801680122114311
:100D90000160204600F07EF910BD000010B586B05D
:100DA000044614216846FFF7F2F911492068884289
:100DB0001BD11048816B0122520411438163C16A27
:100DC00001221143C162C06A6946104005900C209F
:100DD0000090022001900020029003200390042044
:100DE000049005200007FFF725FA06B010BD0000AB
:100DF0000044004000100240FFB50446806F83B0FD
:100E000017460D4620285ED1002D0AD0002F08D0AD
:100E1000A168C001814207D12069002804D1E807F8
:100E200002D0012007B0F0BD204660300090007D68
:100E3000012848D000980121017500208021085127
:100E40002120A067FFF7CEFA264640360190378270
:100E500077820120A1680003814202D12069002825
:100E600005D02F46002500990020087511E00027C5
:100E7000F9E700228021204600F03EFA002815D133
:100E8000002F15D02168387888627F1C708A401E38
:100E90007082708A019B002806980090E9D1002298
:100EA0004021204600F028FA002808D00320B9E7A6
:100EB00028882168C005C00D8862AD1CE6E72020A7
:100EC000A0670020AEE70220ACE7FEE708B50848BF
:100ED000C26A80210A43C262C26A0A400092C16AA1
:100EE00001221143C162C06A1040009008BD000099
:100EF0000010024010B50C480A490160E121490286
:100F0000416000218160C16001618161C1610C2289
:100F1000016242614162FFF70BFF002801D0FFF739
:100F200075F910BD0044004014000020FEE7704732
:100F3000704710B5FFF75CFA10BD000030B59DB0EA
:100F400038216846FFF723F9142117A8FFF71FF986
:100F500024210EA8FFF71BF91A4801680322D202C8
:100F60009143C2148918016001200090000401908F
:100F70000B90052080040C90D00202250D900A955C
:100F80006846FFF775FC002801D072B6FEE70F2017
:100F9000179000240320189019941A9401211B948F
:100FA00017A8FFF73FFB002801D072B6FEE70EA896
:100FB0000E951294FFF76AFA002801D072B6FEE788
:100FC0001DB030BD00700040704710B5818CC9075E
:100FD00007D001684A6801235B049A43836A1A4375
:100FE0004A60818C890707D501684A6801231B0480
:100FF0009A43C36A1A434A60818C490707D501683E
:101000004A6801239B049A43036B1A434A60818C0C
:10101000090707D501684A680123DB039A43436B3C
:101020001A434A60818CC90607D50268916801237A
:101030001B039943836B19439160818C890607D503
:1010400001688A6801235B039A43C36B1A438A6071
:10105000818C490612D503685A6801210905046C80
:101060008A4322435A60026C8A4207D1026851685F
:1010700003235B059943436C19435160818C090636
:1010800007D501684A680123DB04806C9A43024358
:101090004A6010BDF8B50446002680300660FFF7B0
:1010A000A1F9054620680068124F000709D5012103
:1010B0002B46002249052046009700F01DF9002824
:1010C0000DD12068006840070BD501212B46002276
:1010D00089052046009700F00FF9002801D0032071
:1010E000F8BD2020A067E0672666603426750020E2
:1010F000F8BD0000FFFFFF01F8B5044601688068F5
:101100002369E66918436369002533431843724A2B
:101110000B68724E334003430B6021684868032319
:101120001B039843E368184348602168A069914213
:1011300001D0236A18438B680B263602B34303435E
:101140008B606749236867488B420CD1C068800771
:10115000800F06D0012839D0022835D0032821D1AC
:101160001EE001271FE060498B420AD1C0680C21B4
:10117000084027D0042829D0082825D00C2811D1D0
:101180000EE093420ED1C16803208002014019D0C5
:1011900001208002091A19D0091A15D0814201D103
:1011A000082700E010274F495048403986009342F5
:1011B00032D1002F0CD0022F0DD0042F10D0082FC9
:1011C0007FD126E00027EEE70227ECE70427EAE7D5
:1011D000FFF7F6FA06E00968C90605D4304603E0D1
:1011E000FFF70EFB002872D062685100511881424F
:1011F00067D81103814264D3010E06025008002310
:1012000030185941FEF78CFF03210902411A384A70
:1012100055E00120C003E7E70122E369D2039342CE
:101220002BD13B0000F0F4F80906090C4D114D4D8F
:101230004D274D00FFF7C4FA09E0FFF7D1FA06E0A9
:101240000968C90605D4304603E0FFF7D9FA00283B
:101250003DD0616840004A088018FEF74BFF80B21D
:101260000146244A103991422BD8511C01400007F5
:10127000400F084329E01046EBE73B0000F0C8F8B8
:101280000906090C2112212121232100FFF798FAD8
:101290000AE0FFF7A5FA07E00968C90606D4304658
:1012A00004E00EE0FFF7ACFA002810D061684A08AD
:1012B0001018FEF71FFF80B201460E4A1039914206
:1012C00003D9012503E01046F0E72168C86000203B
:1012D0006066A0662846F8BD00480040F369FFEF4D
:1012E00000380140401002400044004000093D0029
:1012F000FFFC0F00EFFF0000FFB581B00546174669
:10130000044660350A9E55E0701C53D0FFF76AF81A
:101310000499401AB04230D8002E2ED020680168BF
:10132000490747D5C069C043000543D4012021685F
:10133000C0020862EFF31080012181F31088216858
:101340000B68FF22A13293430B6080F31088EFF308
:101350001080012181F3108821688A6852085200A8
:101360008A6080F310882020A067E06780342060C6
:1013700000202875032005B0F0BDEFF31080012197
:1013800081F3108821680B68FF22A13293430B6020
:1013900080F31088EFF31080012181F31088216819
:1013A0008A68520852008A6080F310882020A06763
:1013B000E067DDE72068C1690298884304D0002017
:1013C000B842A1D00020D6E70120F9E710B5024AC3
:1013D000024900F05CF810BDAD14000810000020B8
:1013E000F8B5040C8BB2264682B25E430D0C104653
:1013F000370C5843360480190021794116466E4354
:10140000370C36048019794126466E438919F8BD98
:1014100030B47446641E2578641CAB4200D21D466D
:10142000635D5B00E31830BC184700008307FF22B0
:10143000DB0E9A408907090E9940002808DB8308D3
:1014400009489B001B1818689043084318607047B0
:101450000007000F0838830804489B001B18D86950
:1014600090430843D861704700E400E000ED00E0DD
:1014700002E008C8121F08C1002AFAD1704770475D
:10148000002001E001C1121F002AFBD17047F8B50E
:1014900016460F460446002503E03946B047641C53
:1014A0006D1C20780028F8D12846F8BD38B50446D0
:1014B000684604700223012269460248FFF79CFC3B
:1014C000204638BD14000020FEF79AFFFFF736FDD6
:1014D000FFF7FCFCFFF70EFD7D24E40003A0FFF7FF
:1014E00075FF2046FEF794FEF8E7000048656C6C37
:1014F0006F2053544D33320D0A00000000000000ED
:10150000000000000102030406070809030406089E
:101510000C1018203000000000010203040000003D
:10152000401500080000002014000000701400089E
:1015300054150008140000208404000080140008E2
:101540000100000004000000000000000000200076
:041550000000000097
:04000005080000C12E
:00000001FF
