:020000040800F2
:10000000F8040020D9000008111A00081B19000884
:1000100000000000000000000000000000000000E0
:10002000000000000000000000000000151A000899
:100030000000000000000000131A0008171A000852
:10004000EB000008EB000008EB000008EB000008E4
:10005000EB000008EB000008EB000008EB000008D4
:10006000EB000008EB000008EB000008EB000008C4
:10007000EB000008EB00000800000000EB000008A7
:1000800000000000EB00000800000000000000007D
:10009000EB00000800000000EB000008EB00000887
:1000A000EB000008EB000008EB000008EB00000884
:1000B000EB000008EB000008EB000008EB00000874
:1000C0000448854600F0DAFA00480047792800081D
:1000D000C046C046F8040020044880470448004752
:1000E000FEE7FEE7FEE7FEE7FEE7FEE7AD1A0008E3
:1000F000C100000830B50B46014600202022012433
:1001000009E00D46D5409D4205D31D469540491B4B
:100110002546954040191546521E002DF1DC30BD94
:10012000F0B51FB40646002082B005464024019178
:1001300000901BE0019922460F46304600F0CEF8B1
:10014000049A059B801A994110D3104619462246FD
:1001500000F0B4F8361A8F410197224601200021A1
:10016000009F00F0ABF838184D4100902046641E07
:100170000028DFDC019B00982946324607B0F0BD1D
:10018000D2B201E00270401C491EFBD2704700222F
:10019000F6E710B513460A4604461946FFF7F0FF86
:1001A000204610BDF0B51FB488B00B990998002403
:1001B00048400999C00F490049080991C0070B99A7
:1001C0000090490049080B9109990898A6460843F0
:1001D0001CD00B990A98084318D0099801244000B4
:1001E000420D4800410D099824050003000B2043EF
:1001F00009900B980003000B20430B9050181C49EA
:100200004018002201901446104605E000200146E7
:100210000DB0F0BD032801DA034600E003239C463D
:10022000C11A0AAE0AE05F0008ADED5B4F00F75B54
:100230007D430027AA187C41491C5B1E6145F2DD05
:10024000410004AB5A522104120C0A43240C401CF6
:100250000828DFDB01980290009970460191009018
:10026000059B049A0799069800F056F8D0E700001D
:100270000DFCFFFF70B54B005B0803430BD04B0038
:100280005C0D002633466542B341D417AD1AA34135
:1002900002DB0020014670BD12053018514170BDCF
:1002A0000EB505490291002100910A460B460191C5
:1002B00000F032F803B000BD3304000010B5202A6E
:1002C00004DB0146203A9140002010BD91402023DC
:1002D0009C1A0346E3401943904010BD10B5202AF4
:1002E00004DB0846203AD040002110BD0B46D34025
:1002F000D0402024A21A91400843194610BD10B5E1
:10030000002B08DA0024401C614192185B411A431B
:1003100001D14008400010BDF0B51FB482B00546C1
:100320000C0003D0084601F0D3FD02E001F0D0FD3F
:1003300020300246009021462846FFF7BFFF049B6D
:10034000059A04460F4618431143084314D0184633
:1003500010431BD0009840210A1A18460599FFF750
:10036000BDFF05460E46009A05990498FFF7A6FFC3
:10037000084305D0012004E02046394607B0F0BD0F
:100380000020C11705430E432C43374300990E98B4
:100390006305401A7905E40A00220C43FD0A0A307D
:1003A00002D500200146E9E70105101969410C9CBE
:1003B0000D9D00196941FFF7A2FFDFE7F0B5074681
:1003C0000846584087B0C00F049048000E465900B8
:1003D00040084908BC1A884105D2384631461E46B5
:1003E00017460B4602465800400810434DD0300DCA
:1003F000039040055900400D490D0590401A0290A8
:10040000402873DA18030121000B09050843019005
:1004100004980092002806D01146019A4942002013
:10042000904100910190029840210A1A0199009888
:10043000FFF744FF05460C466B4607CB00F030F94A
:10044000C0197141039A0E0D0023D71756401A4662
:100450007A40164344D0049A002A2DD0029A012AE9
:10046000039A15DC1205C01A914101263605001CBD
:100470007141D20F059ED2070093019202962A463F
:100480002346FFF749FF07B0F0BD38463146FAE78B
:100490001605234A0F46B218C01AB74101210905B3
:1004A000001C4F4100187F41114618187941E20F96
:1004B00010436D19644113E0E2076D0815436408A9
:1004C000C2071443039A01261205C01A914136054A
:1004D000001C7141CE07400830434908C018514103
:1004E0002A462346FFF70BFFCDE7FFE704980122DA
:1004F0004000C117121A00238B4104983146C417DB
:10050000381AA141EEE730B40124E407634030BC5F
:1005100054E730B40124E407614030BC4EE70000EA
:100520000000E0FFF0B50C465C4085B0E40FE40746
:1005300003944C000026640859009446490802467A
:100540000296224321D062460A431ED06200570D14
:100550004A000E032303550D012402462C492405AD
:10056000781B1B0B360B4018234326436146009033
:100570001C46501AB44103D30098401C009002E07E
:10058000921800985B41002803DA0020014605B06C
:10059000F0BD0020012109050746864611E06446AA
:1005A0001D46141BB54106D36546521BB341744624
:1005B00007430C43A646CD07400849082843921834
:1005C0005B4105460D43EAD11046184313D06046FF
:1005D000194650407140084306D06046101AB34196
:1005E00006D20122002306E000220123DB0702E0FD
:1005F0000122D2435310009874460105381C614112
:10060000029C039D00196941FFF779FEBFE70000D6
:10061000FD0300004A0009030123090B1B051943D0
:100620000A4B10B5520D9A4202DA0020014610BD65
:10063000064B34339A4203DC9A1AFFF74FFE10BD83
:10064000034BD218FFF73AFE10BD0000FF03000075
:10065000CDFBFFFF10B5002904DB0124E407404275
:100660008C412146002B04DB1C460123DB07524250
:10067000A341994200D1904210BD0000064C0125D3
:10068000064E05E0E36807CC2B430C3C984710343A
:10069000B442F7D3FFF718FD88290008A8290008FD
:1006A00010B5202A06DBCB170846203A1041C117A7
:1006B0000B4306E00B461341D0402024A21A914080
:1006C0000843194610BD70B50446006881684907A3
:1006D00024D5816810264907002905DA8168890731
:1006E00002D481683143816000F0A2FB054611E02D
:1006F00000F09EFB401B0A280CD920688068400748
:1007000008D5606D30436065A06D01210843A06588
:10071000084670BD206880684007E9D4002070BD9D
:1007200038B50446064805490068FFF7E3FC604316
:1007300000E0401E00900028FBD138BD40420F0071
:100740000C000020F8B50446006881688907890F0D
:10075000012929D10168C90726D0816805221140E5
:1007600010250126012913D18168022211438160DD
:1007700021680320086000F05BFB074610E000F0F2
:1007800057FBC01B0A280BD920688068C00707D018
:10079000606D28436065A06D3043A0650120F8BD01
:1007A00020688068C007EAD10020F8BDF8B504468B
:1007B000006881688907890F012902D10168C9078A
:1007C00027D18168144A102611400125002913D130
:1007D0008168294381600120FFF7A2FF00F028FB18
:1007E000074611E000F024FBC01B0A280CD9206842
:1007F0000068C043C00707D0606D30436065A06DDE
:100800002843A0650120F8BD20680068C043C007E8
:10081000E8D10020F8BD00001700008072B6FEE7A6
:10082000F8B506460D464036317C01290DD0012130
:10083000317401688A68520709D5416D202211433D
:100840004165002030740120F8BD0220F8BD204B26
:100850006A68D80547109A421E4C8A6A2B681BD0DA
:100860005B035B0B1A438A622968490305D5A168BB
:100870000143A1600A20FFF753FF2868800302D5D7
:10088000A0683843A0602868C0031DD5A068012176
:1008900009060843A06017E05B035B0B9A438A627A
:1008A0002968490302D5A1688143A16028688003B3
:1008B00002D5A068B843A0602868C00304D5A16829
:1008C000012000068143A16000203074F8BD0000C3
:1008D00001100000002701400068006C7047000014
:1008E00070B5040006D0606D26460025403600280D
:1008F00002D006E0012070BDA5653574204600F0E9
:10090000D3F8606DC00603D421688868400705D518
:10091000606D1021084360653574EBE7606DFF2260
:100920000132904302221043606588688207920F6B
:100930005B48012A02D10A68D2072BD103236268DF
:100940009B079A4205D05B429A4202D05B009A42D2
:1009500009D10A69920092080A6121680A696368EC
:100960001A430A610CE00A69920092080A618168E0
:100970000F22920491438160816862681143816013
:100980002168CA6818239A43CA602168CA68A368A4
:100990001A43CA60816801225206914381608168CE
:1009A000A28E52061143816020688168C90004D478
:1009B000816801221207114381602068C168394AA9
:1009C0001140C1602069E168022825D00020014360
:1009D000204620300278037B52035B001A43114308
:1009E000226B1143A26992031143E269D2031143BE
:1009F0002268D3681943D160616A0A46FF3AC23A55
:100A000005D0A26A11432268D3681943D1604278A5
:100A10000121012A02D00BE00420D8E70078002849
:100A200023D0606D202210436065A06D0843A0654F
:100A3000E06B012820681FD00169C90703D0016954
:100A400049084900016120684169C908C90041613C
:100A500020684169A26B11434161A565606D800802
:100A60008000401C6065002070BD2068C2680123C2
:100A70001B041A43C260DBE70269FF239B009A4311
:100A8000026120680269236CA66C1A43636C3343CD
:100A90001A430261206802690A430261D3E7000039
:100AA000002701401902FEFF10B586B0044614214C
:100AB0006846FFF76CFB0D492068884214D10C484A
:100AC000416B421511434163C26A04210A43C26269
:100AD000C06A084005900320009001900020029019
:100AE0006946044800F0CCF806B010BD002401406F
:100AF0000010024000080050F8B504464069254641
:100B000040350E4608280BD02068C068C00709D0C1
:100B1000606D202108436065002028740120F8BD25
:100B2000082700E00C2700F083F9009015E0701C06
:100B300013D0002E05D000F07BF90099401AB04286
:100B40000BD920680068384207D1606D0421084342
:100B50006065002028740320F8BD206800683842D2
:100B6000E5D0606D01214902084360652068C168D5
:100B700009058A0F0C21002A1BD12022125D002AB0
:100B800017D10268120714D5826853070122002B7F
:100B900008DB43688B434360606D13029843104346
:100BA000606506E0606D202318436065A06D10430A
:100BB000A065A069002801D1206801600020F8BD6F
:100BC00070B50446216800208968490721D425466C
:100BD0004035297C01291CD001212974E1690129B2
:100BE00004D02046FFF7E2FD002811D1616D0A4ACA
:100BF0001140FF220132114361650021A165297472
:100C000022681C21116021688A6804231A438A60C3
:100C100070BD022070BD0000FEF1FFFF70B50546FB
:100C200004464035287C012807D001262E74204632
:100C3000FFF749FD002802D00CE0022070BD2046DD
:100C4000FFF780FD002805D1616DFF22013291433D
:100C5000314361650021297470BD000070B5044600
:100C600000F0E6F80546601C02D00448007824181D
:100C700000F0DEF8401BA042FAD370BD0000002057
:100C8000F8B5002303240125BDE032462E469E40E0
:100C9000B446324079D00E79B607B60F012E01D096
:100CA000022E17D186682746B6465E00B7400096EA
:100CB0007646BE43B646CF68009EB7407646374379
:100CC000876046686746BE430F79FF06FF0F9F4067
:100CD000374347600E79F643B6070ED0C6682746FD
:100CE000B4465E00B646B7406646BE43B4468F681B
:100CF0007646B74066463743C7600E79B607B60FEB
:100D0000022E14D1DE08B60036180096366A5F0748
:100D1000B446FE0E0F27B646B7406646BE43B446FD
:100D20000F697646B74066463743009E37620668CD
:100D30002746B4465E00B646B7406646BE430F79C6
:100D4000B446BF07BF0F7646B740664637430760D5
:100D50004E68B603B60F55D02E4F7E6B2E437E6382
:100D60009F082D4EBF00BE190096B6680F27B446E7
:100D70009E07360FB646B7406646BE4305273F0777
:100D8000B446B84202D1002715E03BE0234FB842F9
:100D900001D101270FE0224FB84201D102270AE01A
:100DA000204FB84201D1032705E01F4FB84201D1BF
:100DB000052700E006277646B74066463743009E83
:100DC000B7601A4E36684F689643FF0300D5164346
:100DD000164F3E607E684F689643BF0300D51643AA
:100DE000124F7E60BE684F689643FF0200D51643DF
:100DF0000E4FBE60FE684F689643BF0200D5164393
:100E00000A4AD6605B1C0A681646DA4000D03CE706
:100E1000F8BD000000100240000001400004005036
:100E200000080050000C0050001C0050000401405D
:100E30000148806870470000000000200248816877
:100E400002788918816070470000002010B50848BA
:100E500000240168402211430160204600F00AF896
:100E6000002801D0012401E000F026F8204610BD42
:100E70000020024070B504460D4D7D202978C00049
:100E8000FFF738F901460B480068FFF733F900F027
:100E90005DFC002809D1042C07D200222146401E07
:100EA00000F016F800206C6070BD012070BD0000DD
:100EB000000000200C0000200448416B0122114377
:100EC0004163816B0204114381637047001002404B
:100ED00010B501F039F810BDF8B5044600680027D8
:100EE000604D810601D400057ED55E4E403EB06B5C
:100EF000C00004D4B06B31040843B06301275A48E2
:100F00000168C90511D40168821511430160FFF71A
:100F10008FFF009005E0FFF78BFF0099401A6428CF
:100F200044D851480068C005F5D531680320000554
:100F3000626801401040884205D10323A0681B0568
:100F40001840884208D09003800F032804D13068ED
:100F5000800301D50120F8BD286903210904084058
:100F600029D00A40824202D02278920606D4A26892
:100F70000A4082421FD0208800051CD528692A69B2
:100F800088430121C9040A432A612A698A432A61E4
:100F90002861C0050FD5FFF74BFF009008E0FFF771
:100FA00047FF0099411A3148814201D90320F8BD19
:100FB00028698005F3D561688803800F032805D16F
:100FC00032680005824301400A43326028690322E7
:100FD00061681204114008432861002F06D0B16BEC
:100FE00001200007814300E000E0B1632078C007E2
:100FF00005D0E868E168800880000843E860207850
:10100000800705D5E8680C21884321690843E8601A
:101010002078400706D5E868032189028843616982
:101020000843E8602078000706D5E8680321090333
:101030008843A1690843E8602078400606D5E8683F
:10104000012189068843216A0843E8602078000668
:1010500006D5E868032189048843E1690843E8600C
:101060000020F8BD401002400070004088130000CE
:10107000F8B50E46050038D05E480068C007C00FBE
:10108000B04214D25B4C20684008400030432060DE
:10109000FFF7CEFE074605E0FFF7CAFEC11B564824
:1010A00081427AD82068C007C00FB042F4D12878B6
:1010B000524C800705D5E068F0218843A9680843B1
:1010C000E0602878C00752D06868022806D003285C
:1010D00007D0216801280AD0890504E02168890326
:1010E00001E021688901002903DB0120F8BD4907DF
:1010F000F9E7E168890889000143E160FFF798FE9C
:101100000746686802280AD0032814D001281ED098
:1011100029E0FFF78DFEC11B374881423DD8E068CA
:101120000007800F0228F4D121E0FFF781FEC11BE8
:101130003148814231D8E0680007800F0328F4D19C
:1011400015E0FFF775FEC11B2B48814225D8E068EA
:101150000007800F0128F4D109E0FFF769FEC11BE9
:101160002548814219D8E0680007800FF5D1214851
:101170000168C907C90FB14217D901684908490078
:1011800031430160FFF754FE074608E005E0FFF732
:101190004FFEC11B1848814201D90320F8BD1548F4
:1011A0000068C007C00FB042F1D12878400706D5CB
:1011B000E068072109028843E9680843E06028786D
:1011C000000707D5E0680721C90288432969C900DB
:1011D0000843E06000F03AF8E168094A0906090F9F
:1011E000515CC8400749086007480068FFF742FEA5
:1011F000F8BD0000002002408813000000100240EB
:10120000642900080C00002004000020044805495F
:101210000068C968044A4905490F515CC8407047D5
:101220000C000020001002407D29000804480549F8
:101230000068C968044A8904490F515CC840704776
:101240000C000020001002407D29000870B5184AEB
:10125000D36818490C2018408D0004280BD00828AA
:101260000ED00C280ED050680004410F0120C0039E
:10127000491C884070BD1068C00601D4284670BD66
:10128000084670BD98020C4C000F205C1B029C0F9E
:10129000D368641CDB0303D41268D20600D4294649
:1012A00000F02DFE22460023FEF73AFF70BD00003D
:1012B0000010024000093D0074290008FEB5050039
:1012C0007ED0FE4CE7680C20E66807400120000451
:1012D00006402878C00747D0082F05D00C2F0AD128
:1012E00001200004864206D1206880033CD568684E
:1012F0000028E5D038E0012069680004814203D16C
:1013000021680143216011E0052301221B0492049E
:101310009942216802D111432160F1E781432160A4
:10132000216801400091206890432060686800288F
:101330000DD0FFF77DFD009005E0FFF779FD0099E6
:10134000401A64287BD820688003F6D50CE0FFF7AC
:101350006FFD009005E0FFF76BFD0099401A6428CF
:10136000F0D820688003F6D42878800756D5092362
:10137000E868042F0DD00C2F01D1002E09D00028D1
:101380003CD02168994301432160FFF751FD064697
:1013900028E02168490701D5002891D061681F2203
:1013A000120291432A691202114361602168994334
:1013B00001432160FFF74AFFE16809060A0F00E0D8
:1013C000BFE1BF49895CC840BE490860BE480068AB
:1013D000FFF750FD002873D120E0FFF729FD801BA7
:1013E0000228AFD820684007F7D560681F2109029E
:1013F000884329690902084360600FE020684008BB
:1014000040002060FFF714FD064604E0FFF710FDE2
:10141000801B022896D820684007F7D42878C00699
:1014200060D5002F0CD0E86900284AD02068FF2141
:10143000013108432060FFF7FBFC06462EE0E5E0A3
:101440002068800502D5E8690028A6D060680721D9
:1014500049038843696A084360606068298C000218
:10146000000A090608436060686A410B0120C00356
:10147000491C8840E16809060A0F9149895CC84007
:101480009049086090480068FFF7F4FC002817D1E5
:1014900028E0FFF7CDFC801B0228A2D82068800539
:1014A000F7D56068072149038843696A084360608B
:1014B0006068298C0002000A09060843606011E098
:1014C00025E12168FF20013081432160FFF7B0FC56
:1014D000064604E0FFF7ACFC801B02289AD820687F
:1014E0008005F7D42878794E000724D5686900284C
:1014F000306910D0012108433061FFF799FC00905A
:1015000005E0FFF795FC0099401A02287ED8306963
:101510008007F6D50FE0400840003061FFF788FCF7
:10152000009005E0FFF784FC0099401A02286DD86E
:1015300030698007F6D42878400764D500200290EF
:10154000A06BC00006D4A06B012109070843A0636B
:10155000012002905E480168C90511D40168821516
:1015600011430160FFF764FC009005E0FFF760FCA9
:101570000099401A642849D855480068C005F5D537
:10158000FF20AA680130824203D1316901433161F1
:1015900011E001218902002A07D005231B029A428B
:1015A00003D132690A433261EFE732698243326123
:1015B000306988433061A86800280ED0FFF738FCF6
:1015C000009006E0FFF734FC0099411A414881423F
:1015D0001CD830698005F5D50DE0FFF729FC009097
:1015E00006E0FFF725FC0099411A3A4881420DD8E0
:1015F00030698005F5D40298002804D0A16B012041
:1016000000078143A1632878800600E07EE02ED5A4
:101610003148A9694314002916D0A26801210A4360
:10162000A260626B0A436263016A19430162FFF7B9
:10163000FFFB064604E0FFF7FBFB801B022865D892
:10164000A0688007F7D512E0A16849084900A160A9
:10165000016A99430162FFF7EBFB064604E0FFF7DE
:10166000E7FB801B022851D8A0688007F7D4A86A3E
:10167000002868D00C2F4FD001263606022820689B
:1016800005D0B0432060FFF7D3FB054640E0B043F0
:101690002060FFF7CDFB074604E0FFF7C9FBC01B46
:1016A000022833D820688001F7D4296BE86AE26801
:1016B0000843696BFD231B049A430FE000100240AE
:1016C000642900080C0000200400002040100240A3
:1016D00000700040881300000000014011430843DF
:1016E000E060206830432060FFF7A2FB054604E07D
:1016F000FFF79EFB401B022808D820688001F7D521
:1017000021E0FFF795FB401B022801D90320FEBD15
:1017100020688001F5D416E00128F8D0E0680121A6
:101720000904EA6A014091420BD10F2189042A6B16
:101730000140914205D1032189050840696B884227
:1017400001D00120FEBD0020FEBD0000094910B5FA
:10175000401E884201D9012010BD074C6061032161
:10176000081F00F0F1FB0020A0610720206100208D
:1017700010BD0000FFFFFF0000E000E010B5040016
:1017800003D0A06F002802D007E0012010BD002187
:1017900074200155204600F027F82420A067206817
:1017A0000168490849000160204600F017FA012845
:1017B000ECD0606A002802D0204600F078F920685A
:1017C00041680922D20291434160206881682A223F
:1017D0009143816020680168012211430160204625
:1017E00000F0CAF910BD000010B586B004461421FF
:1017F0006846FEF7CCFC1149206888421BD110488E
:10180000816B0122520411438163C16A0122114399
:10181000C162C06A6946104005900A4800900220E3
:1018200001900020029003200390042004900520E2
:101830000007FFF725FA06B010BD00000044004085
:101840000010024004800000FFB50446806F83B0A2
:1018500017460D4620285ED1002D0AD0002F08D053
:10186000A168C001814207D12069002804D1E8079E
:1018700002D0012007B0F0BD204660300090007D0E
:10188000012848D0009801210175002080210851CD
:101890002120A067FFF7CCFA264640360190378218
:1018A00077820120A1680003814202D120690028CB
:1018B00005D02F46002500990020087511E000276B
:1018C000F9E700228021204600F088FA002815D18F
:1018D000002F15D02168387888627F1C708A401EDE
:1018E0007082708A019B002806980090E9D100223E
:1018F0004021204600F072FA002808D00320B9E702
:1019000028882168C005C00D8862AD1CE6E720204C
:10191000A0670020AEE70220ACE7FEE71CB500217F
:101920001D4800911B4A01910260C163816001233F
:1019300081631205036142600246C1602032137068
:10194000FF235170C233436281621173016381616D
:10195000042241634261C161FEF7C2FF002801D049
:10196000FEF75CFF0D4800900120000301906946DE
:101970000948FEF755FF002801D0FEF74FFF084841
:10198000009069460448FEF74BFF002801D0FEF79F
:1019900045FF1CBD00240140140000200004002865
:1019A0000008002C08B50B48C26A80210A43C262B5
:1019B000C26A0A400092C26A04210A43C262C26A31
:1019C0000A400092C16A01221143C162C06A1040FC
:1019D000009008BD0010024010B50C480A49016093
:1019E000E1214902416000218160C16001618161A2
:1019F000C1610C22016242614162FFF7BFFE002813
:101A000001D0FEF70BFF10BD004400407000002025
:101A1000FEE77047704710B5FFF710FA10BD0000E1
:101A200030B59DB038216846FEF7B1FB142117A8E8
:101A3000FEF7ADFB24210EA8FEF7A9FB1A480168AA
:101A40000322D2029143C214891801600120009040
:101A5000000401900B90052080040C90D002022518
:101A60000D900A956846FFF729FC002801D072B650
:101A7000FEE70F20179000240320189019941A9461
:101A800001211B9417A8FFF7F3FA002801D072B6C2
:101A9000FEE70EA80E951294FFF71EFA002801D05B
:101AA00072B6FEE71DB030BD00700040704710B543
:101AB000818CC90707D001684A6801235B049A43F7
:101AC000836A1A434A60818C890707D501684A688E
:101AD00001231B049A43C36A1A434A60818C490755
:101AE00007D501684A6801239B049A43036B1A4394
:101AF0004A60818C090707D501684A680123DB0326
:101B00009A43436B1A434A60818CC90607D5026821
:101B1000916801231B039943836B19439160818C66
:101B2000890607D501688A6801235B039A43C36B62
:101B30001A438A60818C490612D503685A680121CC
:101B40000905046C8A4322435A60026C8A4207D119
:101B50000268516803235B059943436C1943516044
:101B6000818C090607D501684A680123DB04806C73
:101B70009A4302434A6010BDF8B5044600268030FF
:101B80000660FFF755F9054620680068124F000708
:101B900009D501212B46002249052046009700F077
:101BA0001DF900280DD12068006840070BD50121E0
:101BB0002B46002289052046009700F00FF90028E7
:101BC00001D00320F8BD2020A067E06726666034BE
:101BD00026750020F8BD0000FFFFFF01F8B50446A0
:101BE000016880682369E669184363690025334307
:101BF0001843724A0B68724E334003430B602168EE
:101C0000486803231B039843E3681843486021682E
:101C1000A069914201D0236A18438B680B263602D3
:101C2000B34303438B606749236867488B420CD1F9
:101C3000C0688007800F06D0012839D0022835D02F
:101C4000032821D11EE001271FE060498B420AD101
:101C5000C0680C21084027D0042829D0082825D0A6
:101C60000C2811D10EE093420ED1C16803208002EE
:101C7000014019D001208002091A19D0091A15D083
:101C8000814201D1082700E010274F4950484039D0
:101C90008600934232D1002F0CD0022F0DD0042F9A
:101CA00010D0082F7FD126E00027EEE70227ECE7CF
:101CB0000427EAE7FFF7AAFA06E00968C90605D48F
:101CC000304603E0FFF7C2FA002872D06268510084
:101CD0005118814267D81103814264D3010E060274
:101CE0005008002330185941FEF71AFA032109025F
:101CF000411A384A55E00120C003E7E70122E369B1
:101D0000D20393422BD13B0000F011F90906090CD4
:101D10004D114D4D4D274D00FFF778FA09E0FFF7C3
:101D200085FA06E00968C90605D4304603E0FFF7E6
:101D30008DFA00283DD0616840004A088018FEF7FF
:101D4000D9F980B20146244A103991422BD8511C4E
:101D500001400007400F084329E01046EBE73B0035
:101D600000F0E5F80906090C2112212121232100A8
:101D7000FFF74CFA0AE0FFF759FA07E00968C906CD
:101D800006D4304604E00EE0FFF760FA002810D0D9
:101D900061684A081018FEF7ADF980B201460E4A94
:101DA0001039914203D9012503E01046F0E721687C
:101DB000C86000206066A0662846F8BD0048004064
:101DC000F369FFEF0038014040100240004400403A
:101DD00000093D00FFFC0F00EFFF0000FFB581B0E0
:101DE00005461746044660350A9E55E0701C53D0E0
:101DF000FFF71EF80499401AB04230D8002E2ED0BA
:101E000020680168490747D5C069C043000543D42D
:101E100001202168C0020862EFF31080012181F3E4
:101E2000108821680B68FF22A13293430B6080F376
:101E30001088EFF31080012181F3108821688A68EF
:101E4000520852008A6080F310882020A067E06763
:101E50008034206000202875032005B0F0BDEFF32A
:101E60001080012181F3108821680B68FF22A132C4
:101E700093430B6080F31088EFF31080012181F30E
:101E8000108821688A68520852008A6080F310889E
:101E90002020A067E067DDE72068C16902988843D9
:101EA00004D00020B842A1D00020D6E70120F9E7F5
:101EB0000FB410B503A9044B044A029800F030F99E
:101EC00010BC08BC04B018475D28000810000020B2
:101ED0002021020C01D010211046020A01D0104628
:101EE0000839020901D01046091F820801D01046A6
:101EF000891E420801D0881E7047081A7047F8B53D
:101F0000040C8BB2264682B25E430D0C1046370C91
:101F10005843360480190021794116466E43370C28
:101F200036048019794126466E438919F8BD30B4CC
:101F30007446641E2578641CAB4200D21D46635D66
:101F40005B00E31830BC18478307FF22DB0E9A4082
:101F50008907090E9940002808DB830809489B007F
:101F60001B18186890430843186070470007000F5B
:101F70000838830804489B001B18D869904308431D
:101F8000D861704700E400E000ED00E002E008C81E
:101F9000121F08C1002AFAD170477047002001E0E3
:101FA00001C1121F002AFBD170470000F0B51FB419
:101FB00086B00998089A030D0021024314D05148B5
:101FC000514A1818504305141198012810981AD036
:101FD000281A401C00264D4F4D490096019104904F
:101FE000002812DA444211E01198012449A3012883
:101FF00001D11098C1430698119A84600360C260B1
:1020000041600BB0F0BD4042E4E7044621050020EA
:102010003F4A001C51410391029012E0E00707D0B3
:1020200032463B4601990098FEF7BCF801910090BA
:1020300032463B4610461946FEF7B4F806460F46B0
:102040006410002CEAD10498039B0028029A099995
:10205000089806DAFEF7A6F8019B009AFEF7A2F8A8
:1020600005E0FEF75FFA019B009AFEF75BFA044673
:102070000E460022284BFEF7EDFA03D80020C0439D
:10208000014607E00022254B20463146FEF796F92F
:10209000FEF7C0FA102409E0002C0ADB0A22002314
:1020A000FEF73EF8079B30321A55641E02460A437B
:1020B000F2D11122641C079B121B1C19119B012BCE
:1020C00003D0012308430ED10AE0084304D01120B5
:1020D00010900020119077E71098151A6D1E0BE0F4
:1020E0001098824202DD00236D1C03E0824201DA77
:1020F00000236D1E002BEED0069811998260C160FE
:1021000030C07EE701FCFFFF104D000000001440CE
:102110000000F03F300000000000F0430000E03F0E
:10212000FFB597B0064600251BE2252876D100248E
:102130002746F749049400E00443761C32780120D6
:10214000203A90400842F7D130782A280ED0022257
:10215000307801463039092916D804990A235943A1
:10216000303940181443761C0490F1E7189802C8DF
:1021700004911890002904DA0120400304434842E6
:10218000049002200443761C30782E2814D10420B9
:1021900004437078761C2A2809D11898761C80C8C8
:1021A000189009E00A214F43303FC719761C307858
:1021B000014630390929F5D930786C2810D006DC71
:1021C0004C281AD068280ED06A2817D104E0742849
:1021D00013D07A2812D110E00120400504430CE00E
:1021E0000121090501E0032109050C4371788142B1
:1021F00003D1012000052418761C761C307866284F
:102200000BD013DC58287DD009DC00287BD0452872
:10221000F6D04628F4D047281AD1A9E118E063285F
:1022200035D0642870D0652812D1A1E170286CD017
:1022300008DC6728F1D069287DD06E280DD06F2882
:1022400006D1BCE073282ED0752873D0782859D0D9
:102250001A9A199990476D1C82E16002400F02287A
:1022600009D003280DD00428189801680DD00D60FE
:10227000001D189074E11898EA1701680D604A6013
:10228000F6E7189801680D80F2E70D70F0E71898EE
:102290006A4601781172001D18900020507202A841
:1022A0000090012005E0189802C8189000200091C5
:1022B000C04361070ED5002101E00199491C01913D
:1022C000B94213DA8142F8DB019A0099895C00294E
:1022D000F3D10BE0002101E00199491C01918142F9
:1022E000FADB019A0099895C0029F5D101990498DB
:1022F0001A9B471A21463846199A00F099FA401954
:10230000019903E051E030E115E050E0451807E0A5
:10231000009800990078491C00911A9A19999047E1
:102320000198401E0190401CF2D1214638461A9B6C
:10233000199A12E137E00A20002100900191600211
:10234000410F022907D0189A01CA1892C217944661
:10235000032908D00AE01898C01DC108C90005C9A2
:102360001891944607E000B2C2179446042902D19E
:1023700040B2C1178C4600226146944506DA0A46EF
:102380000021404291418C462D2102E0210504D5D7
:102390002B216A461173012103E0E10701D02021BE
:1023A000F7E7029156E00A200AE0102008E010202A
:1023B00000900021042004430191082703E0082035
:1023C0000021019100906002410F022907D0189A64
:1023D00001CA189200229446032908D008E01898F0
:1023E000C01DC108C90005C91891944603E080B218
:1023F000042900D1C0B20021029121072AD53178E9
:102400000D91702906D0009A1021019B4A401A4371
:1024100005D00EE040216A461173012108E06146B3
:10242000014306D030216A4611730D995173022180
:102430000291009A0821019B4A401A430AD1614641
:10244000014301D1610705D530216A46117301218D
:102450007F1E02913178582904D02EA10E910DA92A
:102460000D910DE030A1F9E76146019B009AFDF75F
:1024700057FE0E9B8C469B5C0D9A521E0D9213705C
:1024800061460143F0D10D9805A9081A203001904A
:10249000600703D501200004844300E00127019870
:1024A000874201DD381A00E00020019900904118B0
:1024B000029809180498401A0490E00306D42146B3
:1024C0001A9B199A049800F0B3F94519002706E001
:1024D00003A81A9AC05D199990476D1C7F1C029839
:1024E0008742F5DBE0030CD521461A9B199A049824
:1024F00000F09EF9451904E01A9A30201999904786
:102500006D1C0099481E00900029F5DC1FE00000BA
:1025100009280100303132333435363738396162B9
:10252000636465660000000030313233343536377D
:102530003839414243444546000000000D980D994A
:102540000078491C0D911A9A199990476D1C0199B0
:10255000481E01900029F1DC4DE100F059F94519C0
:10256000761C3078002800D0DFE528461BB0F0BD8F
:10257000600700D406271898C01DC108C900486824
:102580000A680831C30FDB071891190001D09CA11C
:1025900008E0210501D59BA104E0E10701D09AA143
:1025A00000E09AA14300109130785B0865280CD0B8
:1025B00006DC452809D046281DD0472841D141E0F6
:1025C000662818D067283CD13CE00021112F01DBA0
:1025D000112000E0781C0191009008A911A8FFF7D4
:1025E000E5FC139905910021119A15927F1C129810
:1025F0000197009150E00120C00703900120019055
:1026000008A9009711A8FFF7D1FC139A1499059215
:102610000022119B009212981593059A01920029AD
:1026200001D0104602E0791C40180190381A01D5FB
:10263000019804E04042401E0090781C0190C01BAD
:10264000029043E0012F00DA01270021112F01DD64
:10265000112000E038460191009008A911A8FFF769
:10266000A5FC13990591119A0021129815920091D9
:10267000019721070CD40599B94201DB019900E0CB
:102680000191012904DD159A491E515C302906D0BB
:10269000B84201DA011D05DA0121029115E0019924
:1026A000491EEDE7002805DC0099411800910199C9
:1026B000091A03E0019A411C914200DD0191009941
:1026C000401A401C02900120C0070390200706D446
:1026D00002990198814202DB0020C0430290002051
:1026E0006946C87707AF012103980337C9078842B5
:1026F00024D0022011902B201290039800280CDA8D
:10270000404203902D20129007E00A210398FDF724
:10271000F1FC30317F1E039039701199481E1190E1
:102720000029F2DC03980028EFD1791E1298087076
:102730003078202108404530BF1E387006A8C01BE5
:10274000C01D039010980078002800D00120019946
:1027500041180298C0170918039809180498401ADC
:10276000401E0490E00306D421461A9B199A04984F
:1027700000F05EF8451910980078002803D01A9AE6
:10278000199990476D1CE00324D521461A9B199A8C
:10279000049800F04DF845191CE00098002807DB6C
:1027A00000990598884203DD1598405C199901E06D
:1027B000199930201A9A904700986D1C401C00907F
:1027C0000298401E0290002804D11A9A2E201999CE
:1027D00090476D1C0199481E01900029DDDC05E041
:1027E00038781A9A7F1C199990476D1C0399481ED6
:1027F00003900029F4DC21461A9B199A0498ACE650
:102800002D0000002B000000200000000000000050
:10281000F8B5044600251E461746880404D405E092
:1028200039462020B0476D1C641EF9D52846F8BDF6
:10283000FFB50446002581B01E46C80301D53027E8
:1028400000E02027880404D505E038460399B04706
:102850006D1C641EF9D5284605B0F0BD38B5044698
:10286000684604700223012269460248FEF7ECFF25
:10287000204638BD70000020FEF7E8FAFFF7D0F8D8
:10288000FFF790F8FFF7A8F8FFF748F8204D214E22
:102890000B27FF432048FEF793F97D21C9001E480E
:1028A000FEF72AF91C48FEF717F8044601461BA05C
:1028B000FFF7FEFA2046FDF7F3FC2A463346FDF704
:1028C00071FC3A46FDF7D6FC02460B4617A0FFF70F
:1028D000EFFA1148FEF700F80446014618A0FFF78A
:1028E000E7FA2046FDF7DCFC2A463346FDF75AFCA2
:1028F0003A46FDF7BFFC02460B4615A0FFF7D8FA93
:102900000548FEF78BF9FF20F530FEF7A7F9C1E780
:102910006666666666660A401400002041444320ED
:1029200056616C7565313A25640D0A00566F6C74FA
:10293000616765313A252E3266560D0A00000000A7
:102940004144432056616C7565323A25640D0A0096
:10295000566F6C74616765323A252E3266560D0AE1
:102960000D0A000000000000000000000102030446
:1029700006070809030406080C10182030000000A0
:102980000001020304000000A82900080000002044
:10299000140000008C1F0008BC290008140000204F
:1029A000E40400009C1F0008010000000400000077
:0C29B000000000000000200000000000FB
:04000005080000C12E
:00000001FF
